:020000040800F2
:10000000C0070020650B0008250200082702000831
:100010002B0200082F020008330200080000000035
:10002000000000000000000000000000370200088F
:1000300039020008000000003B0200083D020008F1
:100040007F0B00087F0B00087F0B00087F0B000868
:100050007F0B00087F0B00087F0B00087F0B000858
:100060007F0B00087F0B00087F0B00087F0B000848
:100070007F0B00087F0B00087F0B00087F0B000838
:100080007F0B00087F0B00087F0B00087F0B000828
:100090007F0B00087F0B00087F0B00087F0B000818
:1000A0007F0B00087F0B00087F0B00087F0B000808
:1000B000050B00087F0B00087F0B00087F0B000872
:1000C0007F0B00087F0B00087F0B00087F0B0008E8
:1000D0007F0B0008C70400087F0B00087F0B000897
:1000E0007F0B00087F0B00087F0B00087F0B0008C8
:1000F0007F0B00087F0B00087F0B00087F0B0008B8
:100100007F0B00087F0B00087F0B00087F0B0008A7
:100110007F0B00087F0B00087F0B00087F0B000897
:100120007F0B00087F0B00087F0B00087F0B000887
:1001300000F002F800F043F80AA090E8000C8244B6
:100140008344AAF10107DA4501D100F038F8AFF293
:10015000090EBAE80F0013F0010F18BFFB1A43F0A5
:1001600001031847042A0000242A0000103A24BF83
:1001700078C878C1FAD8520724BF30C830C144BF0C
:1001800004680C607047000000230024002500264E
:10019000103A28BF78C1FBD8520728BF30C148BFEA
:1001A0000B6070471FB502F021FB04000020002106
:1001B00002F07CFB401C60601FBD10B510BD02F05A
:1001C000F0FA1146FFF7EEFF00F008F802F020FB0E
:1001D00003B4FFF7F2FF03BC02F060FB00F06DF91F
:1001E0004FF4165000F01AF900F067F900F084FBA4
:1001F00000F048FA00F05CFA00F0E6FB00F066FB65
:1002000000F024FB00F092FA06E0044800686FEA70
:1002100000000349C1F88C01F7E700008C0121427E
:1002200000002142704700BFFEE700BFFEE700BFAD
:10023000FEE700BFFEE77047704770477047000059
:100240000CB50020019000906B48006840F48030AD
:100250006949086000BF6848006800F400300090F9
:100260000198401C0190009818B90198B0F5A06F52
:10027000F1D16148006810F4003F02D001200090E5
:1002800001E0002000900098012842D15B480068FE
:1002900040F01000594908600846006820F003004B
:1002A00008600846006840F0020008605248406854
:1002B000514948600846406848600846406840F434
:1002C000806048600846406820F47C10486008461A
:1002D000406840F4E81048600846006840F08070CC
:1002E000086000BF4448006810F0007FFAD0424820
:1002F000406820F00300404948600846406840F0EC
:100300000200486000BF3C48406800F00C0008282C
:10031000F9D10CBD10B5FFF793FF10BD10B53648ED
:10032000006840F0010034490860084640683449DC
:1003300008403149486008460068324908402E4963
:1003400008600846006820F480200860084640687D
:1003500020F4FE0048604FF41F008860FFF7DAFFCA
:100360004FF000602849086010BD10B50021002042
:100370000022214B5B6803F00C0121B1042906D057
:10038000082928D107E0214B214C236027E01F4B8F
:100390001F4C236023E0184B5B6803F47010164B6E
:1003A0005B6803F48032022303EB904022B9194BBF
:1003B0004343174C23600DE00F4B5B6813F4003F81
:1003C00004D0144B4343124C236003E00F4B4343D0
:1003D0000F4C236003E00D4B0D4C236000BF00BFAA
:1003E000054B5B68C3F303130B4CE15C084B1B68C4
:1003F000CB40074C236010BD00100240002002409B
:100400000000FFF8FFFFF6FE08ED00E000127A00A2
:100410000000002000093D000400002010B586B057
:100420000446012144F2040000F040FF8D4801F031
:10043000B3FE4FF40070ADF8140003208DF81600E1
:1004400018208DF8170005A9874800F079FC4FF4B3
:100450008060ADF8140004208DF8170005A98248CB
:1004600000F06EFC01940020ADF80800ADF80A0021
:10047000ADF80C00ADF810000C20ADF80E0001A98D
:10048000784801F0CCFE25208DF8000000208DF882
:1004900001008DF8020001208DF80300684600F08D
:1004A00086FB012240F225516E4801F050FF0121E8
:1004B0006C4801F040FF06B010BD90206B490870F9
:1004C0007020487070472DE9F04140F22551654891
:1004D00002F00CF8002874D0624801F09DFFC5B20C
:1004E000FF2D04D162480078401C61490870002645
:1004F0000BE05E48805DA84205D101205D4908708F
:1005000000205B490870701CC6B2022EF1DB58480F
:100510000078B0B957480078012812D15648574999
:100520000988455455480088401C544908800846AD
:100530000088C72805DD002008804D4908704D4916
:1005400008704B480078032867D14A480078012892
:1005500063D14A480078801EC7B20F21484802F094
:100560005EF80F2F59DA002406E04349A01C095C0D
:1005700043480155601CC4B2BC42F6DB00203F4931
:1005800008803C4908703A4908703B4840789728F1
:1005900018D098282BD099283DD1394802F000F87E
:1005A00037490C3988800B461A7919881B8998B20B
:1005B00000F066FA32480C3881882A4801F028FF9A
:1005C0002AE02FE02E4801F0EBFF2D490C3988601E
:1005D0000B461A7919881B8998B200F051FA2848FD
:1005E0000C38008981B21F4801F012FF14E0244842
:1005F00001F0D6FF22490C3908800B461A79198878
:100600001B8998B200F03CFA1D480C380188154847
:1006100001F0FEFE00E000BF00BF40F2255111488E
:1006200001F0A4FFBDE8F08170B504460D46E1B2CB
:100630000C4801F0EDFE00BF40210A4801F056FFD2
:100640000028F9D0204670BD10B5044600BF202117
:10065000044801F04BFF0128F9D1024801F0DCFE0B
:1006600010BD0000003801400008014018000020C3
:100670001400002015000020340000201600002087
:100680000801002008B50121042000F00FFE0C2015
:10069000ADF8000010208DF8030003208DF8020053
:1006A0006946024800F04CFB08BD0000000801400C
:1006B00008B50121042000F0F9FD0320ADF8000089
:1006C00048208DF803006946144800F039FB08BD46
:1006D00010B513480078A8B11248006810B112484C
:1006E000006878B90A2000F043F900200C4908702E
:1006F0000C48006808B9012010BD0B48006858B9C3
:100700000220F9E707480068012805D1064800687B
:10071000012801D1024908700020EDE700080140DE
:100720001A000020000121420401214200B585B0D9
:1007300014225B49684601F040FF0120594981F8C5
:100740002000084690F820005DF82000C8610120D4
:100750008880002088604880088005B000BD70B5A2
:1007600051480078032870D15048007801286CD196
:100770004F4908604F480078A0F10200C5B24FF021
:100780000F01484800F10C0001F049FF0F2D19DA64
:1007900000240BE04849A01C095C42480C3001557C
:1007A000015D464801F034FE601CC4B2AC42F1DB8E
:1007B0000020404908803C4908703F4841783F4844
:1007C00001F026FE3C484078972816D0982828D07B
:1007D000992839D133480C3001F0E2FE3149888044
:1007E0000B461A7919881B8998B200F049F92D48EF
:1007F0008188324801F00CFE26E02A480C3001F0D6
:10080000CFFE284988600B461A7919881B8998B24F
:1008100000F036F92348008981B2284801F0F8FD3C
:1008200012E020480C3001F0BBFE1E4908800B4648
:100830001A7919881B8998B200F022F91948818821
:100840001E4801F0E5FD00BF00BF70BD08B50121E5
:10085000092000F02BFD0121194800F040FB012187
:10086000184800F03CFB4FF40060ADF80000182081
:100870008DF8030003208DF802006946124800F04D
:100880005FFA4FF48060ADF8000010208DF803008F
:1008900003208DF8020069460B4800F051FA08BDAC
:1008A000542B0008FC00002014000020150000203C
:1008B0008801214216000020340000200038014049
:1008C0000003180000043000000C01400021094A18
:1008D000116251629163D1639160D1601161516184
:1008E00000209062D0621160516010635063114625
:1008F000886170472001002010B56FF0040000F0FF
:10090000A1F92D4800682D49B0FBF1F02C49087081
:100910000846007800EB4001C1EBC0104FF6FF71B4
:1009200001EAC0002749088010BD0146244A127818
:100930004A434FF0E0235A6100229A611A46126935
:1009400042F001021A6100BF4FF0E022106910F07E
:10095000010F02D010F4803FF6D04FF0E022126970
:1009600022F001024FF0E0231A6100229A617047E1
:100970000146144A12884A434FF0E0235A6100228C
:100980009A611A46126942F001021A6100BF4FF0E3
:10099000E022106910F0010F02D010F4803FF6D071
:1009A0004FF0E022126922F001024FF0E0231A61B9
:1009B00000229A61704700000000002000127A00B7
:1009C0001C0000201E000020F0B589B04FF08040D0
:1009D00000F0D4FC0121084600F075FC40F21F3005
:1009E000ADF81C003620ADF818000020ADF81E0050
:1009F000ADF81A008DF8200006A94FF0804000F0F5
:100A000091FD6020ADF808000120ADF80A008107D3
:100A1000888D01F08EFF06464C4A4D4B01F09CFF3D
:100A2000044601F059FF80B2ADF80E000020ADF889
:100A3000100002A94FF0804000F08BFE1C208DF8C2
:100A4000040000208DF8050001208DF806008DF8C7
:100A5000070001A800F0ABF80121880701F084FB32
:100A600001221146900701F0D4F80121880701F016
:100A7000B5F800214FF0804001F04EFB09B0F0BD09
:100A80002DE9F05F044689469246B9F1000F05DD75
:100A90003048A0F8009000202E494880002C1EDD30
:100AA0002D4890FBF4F085B229464FF0804001F0CC
:100AB0002BFB284884604FF08041888D01F039FF7E
:100AC0000746224A224B01F047FF054601F004FF8A
:100AD0001FFA80FB59464FF0804001F01DFBBAF130
:100AE000000F05D100201B4988801C49086007E0E1
:100AF000BAF1010F04D10120164988801749086016
:100B0000BDE8F09F10B50121880701F030FBE0B18E
:100B1000104840880F490988884208DB00214FF0BF
:100B2000804001F0F9FA00200D49086007E009480B
:100B30004088401C074948800120094908604FF05F
:100B400001014FF0804001F023FB10BDCDCCCCCC97
:100B5000CCCCEC3FFC000020A3F91300A88121427B
:100B6000880121420948804709480047FEE7FEE71F
:100B7000FEE7FEE7FEE7FEE7FEE7FEE7FEE7FEE74D
:100B800004480549054A064B704700001D0300084C
:100B900031010008C0010020C0070020C003002070
:100BA000C003002031490143314A1160704770B5DC
:100BB000002100230F22C4780CB32D4C246804F4C8
:100BC000E064C4F5E064210AC1F10403CA4044783A
:100BD00004FA03F18478144021430901254C067876
:100BE000A155047804F01F050124AC4005786D116F
:100BF0004FF0E02606EB8505C5F8004109E00478D2
:100C000004F01F050124AC401B4D0678761145F811
:100C1000264070BD194A0A400243154B1B1F1A603B
:100C2000704739B1124A121D12680243104B1B1D46
:100C30001A6006E00E4A121D126882430C4B1B1DFF
:100C40001A607047042808D14FF0E021096941F08B
:100C500004014FF0E022116107E04FF0E021096943
:100C600021F004014FF0E022116170470000FA0505
:100C70000CED00E000E400E080E100E080FFFF1FF9
:100C800010B50446CA48844208D10121042000F06E
:100C900027FB0021042000F023FB46E0C5488442E6
:100CA00008D10121082000F01BFB0021082000F0E2
:100CB00017FB3AE0C048844208D10121102000F01F
:100CC0000FFB0021102000F00BFB2EE0BB488442FC
:100CD00008D10121202000F003FB0021202000F09A
:100CE000FFFA22E0B648844208D10121402000F0FA
:100CF000F7FA0021402000F0F3FA16E0B1488442F0
:100D000008D10121802000F0EBFA0021802000F0C2
:100D1000E7FA0AE0AC48844207D10121801500F0CF
:100D2000DFFA0021A01500F0DBFA10BD10B501219B
:100D3000084600F0D5FA0021012000F0D1FA10BDDC
:100D40002DE9F04102460025002600200023002462
:100D5000002791F803C00CF00F0591F803C01CF0B8
:100D6000100F03D091F802C04CEA050591F800C0BD
:100D7000BCF1000F31D0146800202BE04FF0010CC3
:100D80000CFA00F3B1F800C00CEA03069E4220D131
:100D900083004FF00F0C0CFA03F7BC4305FA03FC79
:100DA0004CEA040491F803C0BCF1280F06D14FF0BF
:100DB000010C0CFA00FCC2F814C00AE091F803C060
:100DC000BCF1480F05D14FF0010C0CFA00FCC2F841
:100DD00010C0401C0828D1D31460B1F800C0BCF189
:100DE000FF0F34DD546800202EE000F1080C4FF0B6
:100DF000010808FA0CF3B1F800C00CEA03069E42A1
:100E000021D183004FF00F0C0CFA03F7BC4305FA15
:100E100003FC4CEA040491F803C0BCF1280F05D18F
:100E200000F1080C08FA0CF8C2F8148091F803C01D
:100E3000BCF1480F07D100F1080C4FF0010808FA87
:100E40000CF8C2F81080401C0828CED35460BDE8CE
:100E5000F0814FF6FF710180022181700421C17081
:100E600070470246002093680B4201D0012000E049
:100E7000002070470146886880B270470246002013
:100E8000D3680B4201D0012000E0002070470146EA
:100E9000C86880B2704701617047416170470AB10C
:100EA000016100E041617047C16070474FF48032DA
:100EB0000A43826181618261826982697047024668
:100EC0000020424B18684FF68073184040EA021029
:100ED00008433E4B186070473D49C8617047F0B504
:100EE0000A46002300240021002500F00046B6F148
:100EF000004F02D1354EF16901E0344E7168C0F304
:100F0000034583B200F44016B6F5401F08D121F026
:100F100070612E4E766826F070662C4F7E6012E06F
:100F200000F48016B6F5801F06D1032606FA05F4F4
:100F3000A14341F0706106E0460D360103FA06F662
:100F4000B14341F0706122B1460D360103FA06F655
:100F5000314300F00046B6F1004F02D11B4EF16163
:100F600001E01A4E7160F0BD30B500228B071C0FF6
:100F70000F2303FA04F2154B08338C1053F8243076
:100F80009343124C08348D1044F8253023468C10BE
:100F900053F824308C07240F00FA04F423430B4C3D
:100FA00008348D1044F8253030BD0A490860704778
:100FB00000080140000C01400010014000140140F5
:100FC00000180140001C01400020014000000140C9
:100FD00000002042DC002042DD48006840F00100B3
:100FE000DB49086008464068DA490840D84948604B
:100FF00008460068D8490840D54908600846006896
:1010000020F4802008600846406820F4FE00486014
:101010004FF41F0088607047CD49096821F4803182
:10102000CB4A11601146096821F480211160B0F5A6
:10103000803F03D0B0F5802F0ED106E0C449096887
:1010400041F48031C24A116007E0C149096841F4A6
:10105000A021BF4A116000E000BF00BF704710B57B
:1010600001460022002300204A11012A02D1B84C77
:10107000236806E0022A02D1B54C236A01E0B44C91
:10108000636A01F01F02012494401C4201D0012038
:1010900000E0002010BD38B500200090002400259D
:1010A00000BF3120FFF7DBFF05460098401C009091
:1010B0000098B0F5A06F01D0002DF2D03120FFF7DD
:1010C000CEFF08B1012400E00024204638BD0146CF
:1010D00000209F4A106820F0F80040EAC10010602C
:1010E00070479E490860704702460020984B586838
:1010F00020F47C1042EA01031843954B5860704776
:1011000096490866704701460020914A506820F0D1
:1011100003000843506070478D48406800F00C00A1
:101120007047014600208A4A506820F0F0000843CA
:101130005060704701460020854A506820F4E06006
:1011400008435060704701460020814A506820F4EF
:10115000605040EAC1005060704729B17C4A527A21
:1011600002437B4B5A7204E0794A527A8243784BAD
:101170005A7270477A490860704701460020744AE5
:10118000506820F440400843506070470021754A81
:1011900011706F4A82F82010012802D0042808D16B
:1011A00003E001216F4A117004E005216D4A1170BE
:1011B00000E000BF00BF70476B490860704764499A
:1011C000096A0143624A11627047674944390860FD
:1011D000704730B500210022002400235C4D6D686B
:1011E00005F00C0121B1042905D0082923D105E01F
:1011F0005E4D056022E05D4D05601FE0544D6D6859
:1012000005F47012524D6D6805F48034022505EB2B
:1012100092421CB9564D554305600BE04C4D6D682C
:1012200015F4003F03D0524D5543056002E04F4D89
:101230005543056002E04D4D056000BF00BF444DC1
:101240006D6805F0F00109094A4D6B5C0568DD40E9
:1012500045603F4D6D6805F4E061090A454D6B5CE2
:101260004568DD4085603A4D6D6805F46051C90AF6
:10127000404D6B5C4568DD40C560354D6D6805F4DB
:101280004041890B3C4D6B5CC568B5FBF3F50561CE
:1012900030BD29B12E4A526902432D4B5A6104E0F8
:1012A0002B4A526982432A4B5A61704729B1284A16
:1012B00092690243264B9A6104E0254A926982436F
:1012C000234B9A61704729B1214AD2690243204BCE
:1012D000DA6104E01E4AD26982431D4BDA6170472D
:1012E00029B11B4AD2680243194BDA6004E0184A5C
:1012F000D2688243164BDA60704729B1144A1269EA
:101300000243134B1A6104E0114A12698243104BE5
:101310001A61704714494039086070470F49C86422
:1013200070470B49C87170470948406A40F08070A7
:1013300007494862704701460020054A92680A4200
:1013400001D0012000E000207047014988727047F9
:10135000001002400000FFF8FFFFF6FE00004242CE
:10136000D8004242201002408004424200127A001B
:1013700000093D00200000203000002010B5044688
:10138000FE48844208D10121C014FFF7A9FF0021C3
:10139000E014FFF7A5FFC4E0B4F1804F08D10121AC
:1013A0000846FFF7AAFF00210120FFF7A6FFB8E0DB
:1013B000F348844208D101210220FFF79EFF00215B
:1013C0000220FFF79AFFACE0EE48844208D10121E9
:1013D0000420FFF792FF00210420FFF78EFFA0E01A
:1013E000E948844208D101210820FFF786FF002147
:1013F0000820FFF782FF94E0E448844208D10121ED
:101400001020FFF77AFF00211020FFF776FF88E019
:10141000DF48844208D101212020FFF76EFF002120
:101420002020FFF76AFF7CE0DA48844208D10121DE
:101430004014FFF755FF00216014FFF751FF70E0E3
:10144000D548844209D10121C804FFF749FF002192
:101450004FF40020FFF744FF63E0D048844209D1F5
:1014600001210805FFF73CFF00214FF48010FFF732
:1014700037FF56E0CA48844209D101214805FFF7E9
:101480002FFF00214FF40010FFF72AFF49E0C54865
:10149000844208D101214020FFF72FFF0021402086
:1014A000FFF72BFF3DE0C048844208D10121802096
:1014B000FFF723FF00218020FFF71FFF31E0BB482B
:1014C000844208D101218015FFF717FF0021A015E4
:1014D000FFF713FF25E0B648844209D10121080433
:1014E000FFF7FEFE00214FF48030FFF7F9FE18E011
:1014F000B048844209D101214804FFF7F1FE0021E0
:101500004FF40030FFF7ECFE0BE0AB48844208D10B
:1015100001218804FFF7E4FE00214FF48020FFF74B
:10152000DFFE10BD00220288944B98420ED0994BEA
:1015300098420BD0B0F1804F08D0914B984205D023
:10154000904B984202D0904B984204D14FF68F7343
:101550001A404B881A438D4B984207D08C4B9842C7
:1015600004D04FF6FF431A40CB881A4302808B8881
:1015700083850B880385814B98420BD0854B98421D
:1015800008D08B4B984205D08A4B984202D08A4BA8
:10159000984201D10B7A038601238382704770B58C
:1015A000002400220023058C4FF6FE76354005848A
:1015B000028C8388048B4FF68F752C40B51E2C400F
:1015C0000D882C43751E2A400D892A434D882A43D5
:1015D0006A4DA8420BD06F4DA84208D0744DA84266
:1015E00005D0744DA84202D0734DA84213D14FF6D6
:1015F000F7752A404D892A434FF6FB752A408D889E
:101600002A434FF6FF652B404FF6FF552B408D893F
:101610002B43CD892B4383800483CD888586028428
:1016200070BD70B5002400220023058C4FF6EF76C4
:1016300035400584028C8388048B48F6FF752C4066
:101640004FF6FF452C400D884FF6FF7606EA05253C
:101650002C434FF6DF752A400D8906EA05152A430B
:101660004D8806EA05152A43444DA84202D0494D4B
:10167000A8421DD14FF67F752A404D894FF6FF765F
:1016800006EA05152A434FF6BF752A408D8806EAFB
:1016900005152A434FF6FF352B404FF2FF752B40BF
:1016A0008D8906EA85052B43CD8906EA85052B43FE
:1016B00083800483CD880587028470BD70B50024C3
:1016C00000220023058C4FF6FF6635400584028C0E
:1016D0008388848B4FF68F752C404FF6FC752C4019
:1016E0000D882C434FF6FF552A400D894FF6FF76A3
:1016F00006EA05252A434D8806EA05252A431F4D9B
:10170000A84202D0234DA8421DD14FF2FF752A40B6
:101710004D894FF6FF7606EA05252A434FF6FF3539
:101720002A408D8806EA05252A434EF6FF752B4090
:101730004DF6FF752B408D8906EA05152B43CD89A3
:1017400006EA05152B4383808483CD888587028430
:1017500070BD70B5002200230024058C4EF6FF7684
:1017600035400584038C8488828B48F6FF752A40B7
:101770004FF6FF452A400D8820E00000002C014074
:101780000004004000080040000C00400010004031
:101790000014004000340140004C01400050014062
:1017A0000054014000180040001C00400020004090
:1017B0000040014000440140004801404FF6FF76E0
:1017C00006EA05252A434DF6FF752B400D8906EAEA
:1017D00005352B434D8806EA05352B43FA4DA842C3
:1017E00002D0FA4DA84208D14BF6FF752C408D89E6
:1017F0004FF6FF7606EA85152C4384808283CD88D8
:10180000A0F84050038470BD828B4FF2FF331A4022
:101810008283828B4FF6FF7303EA01231A4382838C
:101820007047F0B50C461546002200210026078CB3
:101830004EF6FF7C07EA0C070784828B018C4FF67B
:10184000FF7707EA043640F6FF473A404FF6FF7746
:1018500007EA05273A434FF6FF7707EA03373A438B
:10186000D94FB8420ED0D94FB8420BD0B0F1804F0B
:1018700008D0D74FB84205D0D64FB84202D0D64F85
:10188000B84206D14DF6FF77394046F480573943C8
:1018900005E047F6FF57394044F4805739438283C7
:1018A0000184F0BD828B4FF6F3731A408283828BE2
:1018B0000A4382837047F0B50C461546002200218A
:1018C0000026078C4FF6FF6C07EA0C070784828B13
:1018D000018C4FF6FF7707EA04264FF60C773A4063
:1018E0004FF6FF7707EA03172F433A43B64FB84244
:1018F0000ED0B64FB8420BD0B0F1804F08D0B44FE5
:10190000B84205D0B34FB84202D0B34FB84206D167
:101910004FF6FF57394046F48077394305E04FF2E0
:10192000FF57394044F48077394382830184F0BD06
:10193000028B4FF2FF331A400283028B4FF6FF7384
:1019400003EA01231A4302837047F0B50C4615469B
:10195000002200210026078C4FF6EF7C07EA0C07D7
:101960000784028B018C4FF6FF7707EA041640F6D6
:10197000FF473A404FF6FF7707EA03373A434FF6FF
:10198000FF7707EA05273A438F4FB8420ED08F4FB3
:10199000B8420BD0B0F1804F08D08D4FB84205D07F
:1019A0008C4FB84202D08C4FB84206D14FF6DF7749
:1019B000394046F01007394305E04FF65F7739406C
:1019C00044F01007394302830184F0BD028B4FF6C7
:1019D000F3731A400283028B0A4302837047F0B507
:1019E0000C46154600220021068C4FF6FE773E403D
:1019F0000684028B018C4FF60C7632407E1C06EA80
:101A000003162E433243704EB0420ED06F4EB0429A
:101A10000BD0B0F1804F08D06D4EB04205D06D4E66
:101A2000B04202D06C4EB04206D14FF6FD76314046
:101A300044F00106314305E04FF6F576314044F0BD
:101A40000106314302830184F0BD70B505460C46A2
:101A50005D4885420ED05D4885420BD0B5F1804F80
:101A600008D05B48854205D05A48854202D05A4882
:101A7000854200D100E000BF208850B92389A288A8
:101A800061882846FFF7ABFFE1882846FFF79EFFF5
:101A900025E0208804280AD12389A2886188284665
:101AA000FFF753FFE1882846FFF742FF17E0208841
:101AB00008280AD12389A28861882846FFF7FBFEFF
:101AC000E1882846FFF7EEFE09E02389A2886188B5
:101AD0002846FFF7A6FEE1882846FFF795FE70BD71
:101AE0002DE9F04105460C4600260127608808B91B
:101AF000022600E00026A088012801D1022700E08C
:101B000001272088A0B92389A28861882846FFF789
:101B100066FFE1882846FFF759FF23893A46314698
:101B20002846FFF712FFE1882846FFF701FF13E080
:101B30002389A28861882846FFF707FFE1882846A5
:101B4000FFF7F6FE23893A4631462846FFF747FF5E
:101B5000E1882846FFF73AFFBDE8F0810A884B8804
:101B60001A438B881A43CB881A430B891A434B8933
:101B70001A438B891A43A0F8442070474FF6FF712F
:101B8000818000210180C180418001727047002165
:101B9000018041808180C180018141818181C18139
:101BA0007047002101804180012181800021C18096
:101BB000018170470021018041808180C1800181C5
:101BC0004181818170470000002C014000340140B8
:101BD0000004004000080040000C004021B10288D1
:101BE00042F00102028004E002884FF6FE731A40C0
:101BF0000280704731B1B0F8442042F40042A0F8AE
:101C0000442005E0B0F84420C2F30E02A0F84420BE
:101C100070471AB183890B43838102E083898B4328
:101C2000838170478182704741EA0203A0F84830FF
:101C300070471AB183890B43838102E083898B4308
:101C40008381704701894FF6F87211400181704716
:101C50000A46002101894FF68F7319401143018113
:101C6000704730B504460D4629462046FFF7F0FF81
:101C7000208940F00700208130BD2DE9F041044665
:101C80000D4616461F46602D06D13B4601223146C1
:101C90002046FFF75AFE05E03B460122314620462A
:101CA000FFF79DFE29462046FFF7D2FF208940F02E
:101CB00007002081BDE8F08130B50C460021018984
:101CC000C9B24FF6FF7505EA03251543254329439D
:101CD000018130BD2DE9F04105460E461746984674
:101CE000002443463A4631462846FFF7E5FF2C8953
:101CF0004FF6F870044044F007044FF68F7004402C
:101D000044F070042C81BDE8F081F0B504460D4626
:101D100016461F463B46324629462046FFF7CCFF73
:101D2000208940F480402081F0BD01858282704787
:101D30000A46002101884FF68F7319401143018034
:101D40007047F0B50C4615461E46002100220023C0
:101D50000189028B038C4FF6F877394021434FF607
:101D6000FC473A4040F201173A434FF6DD773B40DB
:101D70004FF6FF7707EA06172F433B4301810283A3
:101D80000384F0BD0A460021018B4FF68F73194082
:101D90001143018370470A460021018B48F6FF7307
:101DA00019404FF6FF7303EA02231943018370477A
:101DB0000A460021818B4FF68F73194011438183AE
:101DC00070470A460021818B48F6FF7319404FF691
:101DD000FF7303EA022319438183704721B102880C
:101DE00042F08002028004E002884FF67F731A40BE
:101DF0000280704721B1828842F00402828004E0B0
:101E000082884FF6FB731A408280704721B1828826
:101E100042F00802828004E082884FF6F7731A408D
:101E20008280704721B1828842F00102828004E002
:101E300082884FF6FE731A40828070470A4600215E
:101E4000018B4FF6F77319401143018370470A461F
:101E50000021018B4FF2FF7319404FF6FF7303EA25
:101E600002231943018370470A460021818B4FF6F4
:101E7000F77319401143818370470A460021818B13
:101E80004FF2FF7319404FF6FF7303EA0223194321
:101E9000818370470A460021018B4FF6FB7319407E
:101EA0001143018370470A460021018B4FF6FF332F
:101EB00019404FF6FF7303EA022319430183704769
:101EC0000A460021818B4FF6FB7319401143818331
:101ED00070470A460021818B4FF6FF3319404FF6B9
:101EE000FF7303EA02231943818370470A460021E6
:101EF000018B4FF67F7319401143018370470A46E7
:101F00000021018BC1F30E014FF6FF7303EA022398
:101F10001943018370470A460021818B4FF67F7376
:101F200019401143818370470A460021818BC1F318
:101F30000E014FF6FF7303EA0223194381837047B2
:101F40000A460021018C4FF6FD73194011430184AC
:101F500070470A460021018C4FF6F7731940114370
:101F6000018470470A460021018C4FF6DF73194047
:101F70004FF6FF7303EA02131943018470470A46C0
:101F80000021018C4FF67F7319404FF6FF7303EA6F
:101F900002131943018470470A460021018C4FF651
:101FA000FF5319404FF6FF7303EA022319430184DC
:101FB00070470A460021018C4FF2FF7319404FF61B
:101FC000FF7303EA02231943018470470A46002184
:101FD000018C4DF6FF7319404FF6FF7303EA02338D
:101FE00019430184704730B5002301248C40A3B20B
:101FF000048C9C430484048C02FA01F5ADB22C439A
:10200000048430BD30B5002304248C40A3B2048C7A
:102010009C430484048C02FA01F5ADB22C43048481
:1020200030BD70B503460020002418461830012545
:102030008D40ACB21D8CA5431D8409B1082909D17E
:1020400000EB6100056825F0700505600568154323
:1020500005600EE00D1FC5F34E052844056825F404
:10206000E045056005684FF6FF7606EA022635432F
:10207000056070BD21B1028842F00202028004E0D6
:1020800002884FF6FD731A400280704721B1028822
:1020900042F00402028004E002884FF6FB731A400B
:1020A0000280704721B1828842F08002828004E081
:1020B00082884FF67F731A408280704702884FF6FD
:1020C000F7731A40028002880A43028070478288B0
:1020D0004FF68F731A40828082880A43828070474D
:1020E00002894FF6F8731A40028102890A4302817D
:1020F000704702894FF67F731A40028102890A43B2
:10210000028170478184704781857047818670475E
:102110000187704781877047A0F840107047028898
:102120004FF6FF431A40028002880A43028070473C
:102130000146888E70470146088F70470146888F98
:1021400070470146B1F8400070470146888C7047DF
:102150000146088D704702460020138A0B4201D0C9
:10216000012000E000207047CA430282704730B56A
:102170000246002000230024158A05EA0103958900
:1021800005EA010413B10CB1012000E0002030BDCC
:10219000CA4302827047000010B50446FB488442DF
:1021A00009D101218803FFF79BF800214FF48040FB
:1021B000FFF796F832E0F648844209D1012148043D
:1021C000FFF79BF800214FF40030FFF796F825E069
:1021D000F048844209D101218804FFF78EF80021DC
:1021E0004FF48020FFF789F818E0EB48844209D1CA
:1021F0000121C804FFF781F800214FF40020FFF708
:102200007CF80BE0E548844208D101210805FFF77E
:1022100074F800214FF48010FFF76FF810BD2DE91E
:10222000F04786B005460E460024A24600BFA146F0
:102230000027B08900B100BF2F462C8A4CF6FF70F2
:102240000440F08804432C82AC894EF6F31004401D
:10225000B08831890843718908430443AC81AC8A52
:102260004FF6FF400440B0890443AC8201A8FEF75A
:10227000B0FFC648874202D1DDF810A001E0DDF8CA
:102280000CA0A88910F4004F08D00AEBCA0000EB9C
:102290000A1031684900B0FBF1F807E00AEBCA0008
:1022A00000EB0A1031688900B0FBF1F86420B8FB3C
:1022B000F0F004012009642101FB1089A88910F4C1
:1022C000004F08D0322000EBC900B0FBF1F000F065
:1022D0000700044308E0322000EB09106421B0FB42
:1022E000F1F000F00F0004432C8106B0BDE8F08748
:1022F0004FF41651016000218180C18001810C21C1
:10230000418100218181704710B502460020108A6A
:102310004FF2FF0318400B884C8823438C882343DB
:10232000CC8823431843108210BD002101804180D6
:102330008180C180704721B1828942F4005282813C
:1023400004E082894DF6FF731A4082817047F0B530
:1023500003460024002600250020A1F510676A3FEF
:1023600000D100BF1846C1F3421401F01F06012737
:1023700007FA06F5012C01D10C3004E0022C01D142
:10238000103000E014301AB107682F43076002E0F4
:102390000768AF430760F0BD1AB1838A0B4383829D
:1023A00002E0838A8B4383827047028A4FF6F07380
:1023B0001A400282028A0A430282704782894FF2DF
:1023C000FF731A40828182890A438281704721B15A
:1023D000828942F00202828104E082894FF6FD7315
:1023E0001A4082817047028A4FF6DF731A400282D8
:1023F000028A0A430282704721B1028A42F4804273
:10240000028204E0028A4BF6FF731A400282704790
:10241000C1F308028280704701468888C0F3080033
:102420007047818941F0010181817047028BD2B2EE
:102430000283028B42EA012202837047028B02F47C
:102440007F420283028B0A430283704721B1828A52
:1024500042F02002828204E0828A4FF6DF731A4043
:102460008282704721B1828A42F01002828204E0A7
:10247000828A4FF6EF731A408282704721B1828AB6
:1024800042F00802828204E0828A4FF6F7731A4013
:102490008282704721B1828942F40042828103E046
:1024A0008289C2F30E028281704721B1828A42F48E
:1024B0000062828204E0828A4FF2FF731A408282B5
:1024C0007047828A4FF6FB731A408282828A0A43DF
:1024D0008282704721B1828A42F00202828204E045
:1024E000828A4FF6FD731A408282704702460020AE
:1024F000B1F5007F00D100BF13880B4201D001204D
:1025000000E00020704701F40072B2F5007F00D1B6
:1025100000BFCA430280704770B502460024002302
:1025200000250020A1F510666A3E00D100BFC1F36E
:10253000421501F01F03012606FA03F3012D02D113
:102540009689334006E0022D02D1168A334001E01D
:10255000968A33400C12012606FA04F41688344099
:1025600013B10CB1012000E0002070BD10B50022B5
:102570000023A1F510646A3C00D100BF0A120124B7
:102580009440A3B2DC43048010BD00000038014039
:102590000044004000480040004C00400050004013
:1025A00070B5064600F066F80468054630460A2213
:1025B000002100F063F82C6070BD10B5203AC0F027
:1025C0000B80B1E81850203AA0E81850B1E8185034
:1025D000A0E81850BFF4F5AF5FEA027C24BFB1E871
:1025E0001850A0E8185044BF18C918C0BDE81040E2
:1025F0005FEA827C24BF51F8043B40F8043B08BFEB
:102600007047D20728BF31F8023B48BF11F8012BB1
:1026100028BF20F8023B48BF00F8012B70474FF05D
:10262000000200B5134694469646203922BFA0E822
:102630000C50A0E80C50B1F12001BFF4F7AF09072E
:1026400028BFA0E80C5048BF0CC05DF804EB89001F
:1026500028BF40F8042B08BF704748BF20F8022B62
:1026600011F0804F18BF00F8012B7047704770477A
:102670007047000000487047600100202DE9F047D6
:1026800091460F4680460446002614F8015B2DB1A2
:1026900000F030F80068405DC007F6D12B2D02D065
:1026A0002D2D18D0641E4A463946204600F02AF8DF
:1026B00027B13968A14201D1C7F800804FF0020468
:1026C00071050BD54042002803DDFFF7D3FF0460FE
:1026D000A007BDE8F08746F48066E4E70028F8DA52
:1026E000FFF7C8FF04606FF00040F2E70048704752
:1026F0006001002010B500F079F8001D10BD00BF8A
:10270000AD0100002DE9F05F824615468B4600279B
:102710000AF10104B9460078302801D09DB113E0D8
:1027200014F8010B0127782803D0582801D045B1AF
:102730000AE00DB1102D07D1002714F8010B102568
:1027400002E0082500E00A250026B0460EE005FB61
:10275000080005FB06F101271FFA80F801EB10467F
:10276000B6F5803F00D3B94614F8010B294600F0B6
:1027700041F80028EBDABBF1000F05D00FB1641E61
:1027800000E05446CBF80040B9F1000F06D0FFF747
:1027900071FF02210160C81EBDE8F09F48EA0640B3
:1027A000FAE77546FFF7A2FFAE46050069465346B5
:1027B00020F00700854618B020B5FEF7E1F9BDE826
:1027C00020404FF000064FF000074FF000084FF098
:1027D000000B21F00701AC46ACE8C009ACE8C00929
:1027E000ACE8C009ACE8C0098D46704700487047A6
:1027F000800100203A2800D2303820F02002412AFF
:1028000001D3A2F13700884201D34FF0FF30704767
:102810000446AFF300802046FDF7DAFC4FF0013CA0
:1028200050F8042B51F8043B9A4221D1A2EB0C033F
:10283000934313EACC1317D150F8042B51F8043BFF
:102840009A4215D1A2EB0C03934313EACC130BD19C
:1028500050F8042B51F8043B9A4209D1A2EB0C0327
:10286000934313EACC13DBD04FF00000704700BF56
:10287000D01A01BAB1FA81F101F0180122FA01F07F
:10288000CB40C1F12001DBB2C0B2C01A2CFA01F377
:10289000D11A914311EAC311E6D1704701491820BA
:1028A000ABBEFEE7260002007047000010B500290D
:1028B0000AD00878002807D005487844FFF7AEFF13
:1028C000002801D0002010BD0248784410BD00004F
:1028D000CE020000C60200004FEA1153A3F5806348
:1028E000D3F11E03A8BFD3F1200C08DB4FF0004248
:1028F00042EAC12252EA505232FA03F070470942CA
:102900000BD4102BC4BF0020704703F5787CBCF1BA
:10291000FF3F05D04FF0FF3070474FF00000704789
:1029200070B500F0C3F800BF4992248000207047C2
:10293000F0E7B0FA80F310FA03F10AD0C3F11D03F7
:1029400003F580634FEA41504FEA035202EBD12175
:1029500070474FF000007047DFF848C170B51CEABF
:10296000111E1EBF1CEA13159EEA0C0F95EA0C0FF0
:1029700000F06F8081EA030423EA4C134EEAD47E10
:1029800021EA4C1141F4801143F48013AE44A1FBC1
:10299000024CA0FB0365AEF17F7E361955EB0C05AA
:1029A000A1FB034C4CF10003A0FB021C16EB0C0630
:1029B000654153F10003094218BF46F0010613F4C4
:1029C000007F0BD14FEA03314FEA0530340341EA6F
:1029D000155140EA16506FF003020AE04FEAC32196
:1029E0004FEAC520F40241EA555140EA56506FF0D3
:1029F000020202EB2E4201EB025585EACE710AD0AB
:102A00005FEA440C18BF24F0004450F1000041F18B
:102A1000000120EAD47040F2FE7C624500D270BD15
:102A2000A84214BF4FF080444FF04044002E08BF2E
:102A30000024BEF1806FA8BFA1F1C041BDE8704085
:102A400080F282804FF0000001F1C04101F00041AE
:102A500070479EEA0C0F0CEA131518BF95EA0C0F8D
:102A600006D04FF0000081EA030E0EF0004170BD69
:102A700000F01CF88900013E00F007B800F009B82A
:102A80004FEA430C5FEA5C5C08D081EA030100F086
:102A90005BB84FEA410C5FEA5C5CF6D14FF0000096
:102AA000014970470000FF070000F87F0EF1020E99
:102AB0002EF0030E5EF8046B364205D4012A43EB78
:102AC000030515F5001F12D8012841EB010C1CF578
:102AD000001F0CD80ED14FEAD17C15F5001F0CEB6E
:102AE0004C0C0CF1020C08BF4CEBD37C04E04FF013
:102AF000080C01E04FEAD37C0CEB4C0526FA05F6F6
:102B000006F00706B6F1040C06D20EEB860CBDE803
:102B100070404CF0010C6047DFE80CF0090B02023A
:102B20004FF000414FF00000A1F5002170BD1946A3
:102B30001046012851EB010418BFD4F5001484BFDE
:102B4000002001F0004170BD0808A0F500114FEA17
:102B500031017047000000006666E63F6666663F2A
:102B60006666E63E6666663E982C00080000002019
:102B7000340000006C010008CC2C00083400002058
:102B80008C070000880100081001000043000000CD
:102B9000F8FFFFFF0040404040404040404041417E
:102BA0004141414040404040404040404040404022
:102BB00040404040400502020202020202020202BC
:102BC00002020202022020202020202020202002B9
:102BD0000202020202029090909090901010101049
:102BE00010101010101010101010101010101010E5
:102BF0000202020202028888888888880808080879
:102C00000808080808080808080808080808080844
:102C1000020202024000000000000000000000006C
:102C200000000000000000000000000000000000A4
:102C30000000000000000000000000000000000094
:102C40000000000000000000000000000000000084
:102C50000000000000000000000000000000000074
:102C60000000000000000000000000000000000064
:102C70000000000000000000000000000000000054
:102C80000000000000000000000000000000000044
:102C9000000000000000000000A24A040000000044
:102CA00000000000010203040607080900000000FC
:102CB0000000010000000000000000000102030409
:0C2CC000010203040607080902040608CC
:0400000508000131BD
:00000001FF
