:020000040800F2
:1000000090060020B1120008590200085B020008A7
:100010005F02000863020008670200080000000099
:100020000000000000000000000000006B0200085B
:100030006D020008000000006F0200087102000855
:10004000CB120008CB120008CB120008CB1200081C
:10005000CB120008CB120008CB120008CB1200080C
:10006000CB120008CB120008CB120008CB120008FC
:10007000CB120008CB120008CB120008CB120008EC
:10008000CB120008CB120008CB120008CB120008DC
:10009000CB120008CB120008CB1200087B0C000822
:1000A000CB120008CB120008CB120008CB120008BC
:1000B000CB120008CB120008ED100008CB1200088C
:1000C000CB120008CB120008CB120008CB1200089C
:1000D000CB12000805050008CB120008CB1200085F
:1000E000CB120008CB120008CB120008CB1200087C
:1000F000CB120008CB120008CB120008CB1200086C
:10010000CB120008CB120008CB120008CB1200085B
:10011000CB120008CB120008CB120008CB1200084B
:10012000CB120008CB120008CB120008CB1200083B
:10013000DFF80CD003F042FB0048004745010008FF
:10014000900600204FF4E06001F0C4F800F0D0F910
:100150004FF4E13000F07CF900F0CAF900F028FF1C
:1001600000F07CFB00F090FB01F008F800F008FCC8
:1001700000F0D2FB00F0C6FB00F082FF00F057FC5D
:1001800000F014FC78232A4A2A492B4800F076FE16
:100190004DE00DE000202949086000F092FC044683
:1001A000214627A000F0A3FE4FF4FA7000F03CFFB8
:1001B000244800682028EDD008E001201F4908608D
:1001C000214881784FF0000001F018F81D480068C0
:1001D000FF28F2D012E0012080F3138800BF00BF97
:1001E0001A48006800F4E06019490843001D1749E7
:1001F0000860BFF3408F00BF00BFFEE711480068F2
:10020000FE28E8D00FE000200C4908601148007873
:1002100010F0010F07D00F48007800F0FE000D49E4
:10022000086000F055FD074800684028EBD0B0E7B3
:100230000C02002004380140440002408C0121429D
:1002400041503D0018000020400100200CED00E06E
:100250000000FA0554000020704700BFFEE700BF11
:10026000FEE700BFFEE700BFFEE77047704770473C
:10027000704700000CB50020019000906B480068AA
:1002800040F480306949086000BF6848006800F4A5
:10029000003000900198401C0190009818B9019816
:1002A000B0F5A06FF1D16148006810F4003F02D0B2
:1002B0000120009001E0002000900098012842D128
:1002C0005B48006840F01000594908600846006823
:1002D00020F0030008600846006840F00200086053
:1002E000524840685149486008464068486008469E
:1002F000406840F4806048600846406820F47C1004
:1003000048600846406840F4E810486008460068C5
:1003100040F08070086000BF4448006810F0007F23
:10032000FAD04248406820F003004049486008463F
:10033000406840F00200486000BF3C48406800F060
:100340000C000828F9D10CBD10B5FFF793FF10BDC4
:1003500010B53648006840F001003449086008468E
:1003600040683449084031494860084600683249CD
:1003700008402E4908600846006820F48020086084
:100380000846406820F4FE0048604FF41F00886073
:10039000FFF7DAFF4FF000602849086010BD10B584
:1003A000002100200022214B5B6803F00C0121B1E9
:1003B000042906D0082928D107E0214B214C2360CD
:1003C00027E01F4B1F4C236023E0184B5B6803F4AE
:1003D0007010164B5B6803F48032022303EB9040ED
:1003E00022B9194B4343174C23600DE00F4B5B6858
:1003F00013F4003F04D0144B4343124C236003E03A
:100400000F4B43430F4C236003E00D4B0D4C236017
:1004100000BF00BF054B5B68C3F303130B4CE15CEB
:10042000084B1B68CB40074C236010BD00100240F6
:10043000002002400000FFF8FFFFF6FE08ED00E09C
:1004400000127A000000002000093D000400002096
:1004500010B586B00446012144F2040001F0BEFA52
:10046000F24802F031FA4FF40070ADF814000320A6
:100470008DF8160018208DF8170005A9EC4800F03B
:10048000F7FF4FF48060ADF8140004208DF81700DA
:1004900005A9E74800F0ECFF01940020ADF8080042
:1004A000ADF80A00ADF80C00ADF810000C20ADF866
:1004B0000E0001A9DD4802F04AFA25208DF800005F
:1004C00001208DF8010000208DF8020001208DF838
:1004D0000300684600F003FF012240F22551D34893
:1004E00002F0CDFA0121D14802F0BDFA06B010BDEC
:1004F0009020D0490870702048708020887091202A
:10050000C87070472DE9F04740F22551C74802F006
:1005100085FB00287BD0C54802F016FBC5B2FF2D35
:1005200004D1C5480078401CC349087000260BE080
:10053000C048805DA84205D10120C0490870002054
:10054000BD490870701CC6B2042EF1DBBA480078B1
:10055000B0B9BA480078012812D1B948B949098818
:100560004554B8480088401CB649088008460088B1
:10057000C72805DD00200880AF490870AF49087022
:10058000AD48007803285FD1AC4800780128FAD143
:10059000AC480078801E00F0FF090F21AA4802F045
:1005A00054FDB9F10F0F4FDA002406E0A449A01C56
:1005B000095CA5480155601CC4B24C45F6DB00201F
:1005C000A04908809D4908709B4908709C480078A4
:1005D00098490978884238D19948407894282AD097
:1005E00004DC892814D091282DD128E0972815D033
:1005F000992828D1944802F03AFD93490839488057
:100600000A469178928890B200F0F8FD1CE07AE0FA
:1006100000214FF0804002F017F915E08A4802F0FF
:1006200026FD8949083948600A469178928890B237
:1006300000F0E4FD08E020208449086004E0FF2089
:100640008249086000E000BF58E07D4800787949A1
:100650008978884243D17A484078FB282ED0FC28FC
:100660001DD0FD280CD0FE2837D179480078072806
:1006700005D14020754908600020754908702DE0BB
:10068000714803F0C9FC074602F018FF7149086081
:100690006F48007840F001006D4908701EE06A481C
:1006A00003F0BAFC074602F009FF6A49486068484F
:1006B000007840F00200664908700FE0624803F0DD
:1006C000ABFC074602F0FAFE624988606048007899
:1006D00040F004005E49087000E000BF0EE058489A
:1006E00000785449C978884208D155484078FE2896
:1006F00002D15649086000E000BF00BF40F225511A
:100700004A4802F0CBFABDE8F08770B504460D46C2
:10071000E1B2464802F014FA00BF4021434802F01B
:100720007DFA0028F9D0204670BD10B5044600BF00
:1007300020213E4802F072FA0128F9D13B4802F02C
:1007400003FA10BD00BF3949098811F0800FFAD0B3
:10075000C0F30801354A121D1180704700B50D2005
:10076000FFF7F0FF0A20FFF7EDFF00BD70B505466B
:10077000284602F075FC401E86B2002404E0285D85
:10078000FFF7E0FF601C84B2B442F8DB285D0A2862
:1007900002D1FFF7E3FF02E0285DFFF7D3FF70BD52
:1007A00070B585B002460020002300BF0CE00A248B
:1007B000B2FBF4F504FB152430340DF80040441C62
:1007C000E0B20A24B2FBF4F2002AF0D10346002082
:1007D00006E01C1A641E1DF804400C54441CE0B2D0
:1007E0009842F6DB20B930260446451CE8B20E5587
:1007F00000240C5405B070BD10B586B0044601A9A4
:100800002046FFF7CDFF01A8FFF7B0FF06B010BDEF
:1008100070B505460C462846FFF7A8FF2046FFF7AF
:10082000EBFF0DA0FFF7A2FF70BD000000380140F4
:10083000000801401C0000201400002015000020CA
:100840007800002016000020480100201800002039
:1008500046000020900100200A00000008B5012198
:10086000042001F0BBF80C20ADF8000010208DF83A
:10087000030003208DF802006946024800F0F8FDED
:1008800008BD00000008014008B50121042001F066
:10089000A5F80320ADF8000048208DF80300694654
:1008A000144800F0E5FD08BD10B513480078A8B164
:1008B0001248006810B11248006878B90A2000F0A8
:1008C000B3FB00200C4908700C48006808B90120EF
:1008D00010BD0B48006858B90220F9E707480068C6
:1008E000012805D106480068012801D10249087095
:1008F0000020EDE700080140200000200001214217
:100900000401214210201949087719488861012003
:10091000488000204860704708B50121092001F097
:100920005DF80121134800F072FE0121124800F029
:100930006EFE4FF40060ADF8000018208DF8030043
:1009400003208DF8020069460C4800F091FD4FF439
:100950008060ADF8000010208DF8030003208DF8B2
:1009600002006946054800F083FD08BD40010020F3
:100970006666E63D0003180000043000000C0140EC
:1009800000200949088348850021074A9160D16009
:1009900011460882002111625162116051601146B6
:1009A00008854861704700006001002008B50121FA
:1009B000052001F013F8C020ADF8000004208DF8E8
:1009C00003006946B54800F053FD2020ADF8000053
:1009D00048208DF803006946B04800F049FD08BD85
:1009E0000EB50121084600F0F9FF0521002000F0B6
:1009F00053FE2020019000208DF808000C208DF877
:100A0000090001208DF80A0001A802F06FF91720F3
:100A10008DF8000002208DF8010000208DF8020002
:100A200001208DF80300684600F059FC0EBD00B5AA
:100A300087B00121022000F0DEFF994801F036F86E
:100A400004A801F033FC0020ADF8100040F2FF30A4
:100A5000ADF814000020ADF81600ADF8120004A99E
:100A60008F4801F0F7F800231A4603218C4801F063
:100A700000FD01A801F02DFC0620ADF80C0001A935
:100A8000874801F07AFB0020854924310880012144
:100A9000834801F03BFC07B000BD70B5804801F011
:100AA000ECFE064602F089FC04460D4600227D4B12
:100AB0002046294602F08FFB04460D462046294673
:100AC00070BD10B5764801F0D8FE0446204610BD32
:100AD0002DE9F041804614461D46FFF7DEFF06462D
:100AE00071480CC8304602F0CFFA6F4A03C20520A5
:100AF00098FBF0F100FB1180002856D100226B4BCF
:100B0000694903C902F0D9FB064602F082FC684934
:100B100008830021644A116051606549098B644A69
:100B2000128A881A02F038FC624A03C200225F4B24
:100B30002046294602F04FFB064632460B465D49E9
:100B400003C902F0BAFB5C4A03C25B480CC8002030
:100B50005A4902F08BFC01D8012000E00020B0F5DA
:100B6000FA6F05DC544903C9514AC2E9020118E091
:100B70000022534B504903C902F08CFC05D20020DF
:100B80004F494B4AC2E902010BE000224B4B4A4954
:100B900003C902F06BFC04D200214848444AC2E970
:100BA00002104348008B42490882BDE8F0812DE9DC
:100BB000F04F87B08046894600BF00BF4FF002006B
:100BC00000F032FA4046494602F023FC38490885D5
:100BD0000846C1688068CDE904013549088B02F0F8
:100BE000ECFB04460D4600200146DDE9042302F03B
:100BF0003DFC01D2012000E0002001283ADA2C4916
:100C0000088D02F0DAFB2F4A2F4BCDE9000102F0EC
:100C1000DCFACDE902012046294602F0DBFBB0F107
:100C2000000B01DB594601E0CBF10001084602F060
:100C3000B3FB0646DDE9022302F02CFC1AD2204663
:100C4000294602F0C7FBB0F1000A01DB504601E083
:100C5000CAF100001649098D491C88420ADA20466B
:100C6000294602F0D6FB124948852046294607B09E
:100C7000BDE8F08F00200146F9E710B5202002F012
:100C80009BF848B1FFF71DFF044621460FA000F076
:100C90002EF9202002F0A1F810BD0000000801404C
:100CA000000400400080D63F2800002000001440CF
:100CB00060010020300000203800002000409FC06C
:100CC00000409F409A9999999999B93F5A503D008F
:100CD0002DE9FF5F00214FF08140644AC2E90C100A
:100CE0001046D0E91210C2E91010FFF7EAFE0446E0
:100CF00002F063FB5D4AC2E91201104600225C4B20
:100D0000D0E91241204602F0B1FB08D35748002237
:100D1000584BD0E91241204602F0BCFB09D2012118
:100D2000002000F06BFA0021504A9162D162BDE8C8
:100D3000FF9F4E48D0E910432246D0E91261304669
:100D400002F043FA494AC2E904011046D0E90C43D3
:100D50002246D0E91261304602F037FA434AC2E92E
:100D600006011046D0E906432246D0E90A61304622
:100D700002F08AF93D4AC2E90A011046D0E904109E
:100D8000C2E908101146886802F05CFB04460D4673
:100D90003649D1E908633246294602F01CFACDE90A
:100DA00002013249486802F04DFB04462F48D0E961
:100DB0000A633246204602F00EFA804689462B49E5
:100DC000086802F03FFB04460D462849D1E9066356
:100DD0003246294602F0FFF9824642464B4602F06F
:100DE00053F9CDE90001DDE9022302F04DF91F4A74
:100DF000C2E90E011146D1E90E43224600201E49E8
:100E000002F034FB01D8012000E00020002810DCB3
:100E10001649D1E90E21104602F0DCFA041E01DB6E
:100E2000204600E0604285B20121284600F0E6F944
:100E30001AE00E48D0E90E4322460020014602F097
:100E400015FB01D2012000E0002040F6B8318842B5
:100E50000ADC0648D0E90E21104602F0DAFA84B224
:100E60000021204600F0CAF900BF60E79001002091
:100E700000507540005885400070A7C02DE9F04132
:100E800007460D4616461C460121084600F099FD0E
:100E9000384601F0ABFF3D4804803D4805604660A0
:100EA00010203B4988600846C4600020086180200B
:100EB000486100208861C86108624FF48050486230
:100EC00000208862384602F033F8BDE8F08110B5A2
:100ED00004460021204602F056F82C4801882D488F
:100EE00002F066F80121204602F04DF810BD2DE910
:100EF000F04186B0074688460025274800887828B4
:100F00001ADA26480078B8B943463A4624A101A81F
:100F100002F09CFE044600BF1F48068805E001A8B9
:100F2000405D214988556D1C761CA542F7DB1A48A7
:100F3000008820441849088006B0BDE8F08110B54B
:100F40001548008878280DDB1448007850B9012234
:100F50008021164801F0B8FD0E48FFF7B8FF0120C8
:100F60000E4908704FF4005002F028F860B10020DC
:100F7000094908800949087078210B4802F065F892
:100F80004FF4005002F02DF810BD00004C0000207E
:100F9000E001002044000240480000204A000020F8
:100FA00025732534640A00000C020020003801403B
:100FB00010B56FF0040000F0DDF92D4800682D49F0
:100FC000B0FBF1F02C4908700846007800EB4001B6
:100FD000C1EBC0104FF6FF7101EAC000274908803D
:100FE00010BD0146244A12784A434FF0E0235A616B
:100FF00000229A611A46126942F001021A6100BF8A
:101000004FF0E022106910F0010F02D010F4803F81
:10101000F6D04FF0E022126922F001024FF0E023F7
:101020001A6100229A6170470146144A12884A43A5
:101030004FF0E0235A6100229A611A46126942F089
:1010400001021A6100BF4FF0E022106910F0010F99
:1010500002D010F4803FF6D04FF0E022126922F067
:1010600001024FF0E0231A6100229A6170470000EC
:101070000000002000127A004E00002050000020E6
:101080001FB5394800F012FD0121042000F0B3FC27
:101090000920ADF8080041F61F40ADF8040000201B
:1010A000ADF80A00ADF806008DF80C0001A92E4835
:1010B00000F0D0FD1E208DF8000000208DF801000A
:1010C0008DF8020001208DF80300684600F007F952
:1010D0000121254801F0E0FB01221146224801F0E0
:1010E00030F90121204801F011F91FBD10B501218F
:1010F0001D4801F0D4FBB0B31C480068401C1B49DC
:10110000086008460068032190FBF1F201FB120021
:1011100010B9012016490860144800680A2190FBA4
:10112000F1F201FB120008B9FFF709FF0F48006850
:101130004FF47A7190FBF1F201FB120030B90D48C7
:1011400000686FEA00000C49C1F888010748006890
:10115000A0F56A41603902D10020044908600121EC
:10116000014801F0ADFB10BD000800405800002010
:101170005400002088012142000021422DE9FF4156
:101180004FF0804000F092FC0121084600F033FC53
:1011900000204149888041F61F4008800020C88017
:1011A000488008724FF0804000F054FD6020ADF898
:1011B00000000120ADF802008107888D02F0FDF8E3
:1011C0000646364A364B02F006F8044602F021F98C
:1011D00080B2ADF806000020ADF8080069464FF077
:1011E000804000F04EFE0121880701F08FF80021B9
:1011F0004FF0804001F028FBBDE8FF812DE9F0476A
:1012000004468946002C2ADD42F2107090FBF4F06F
:10121000451E01D4284600E0684286B231464FF0B0
:10122000804001F009FB1F4844604FF08041888DE9
:1012300002F0C3F8074600221B4B01F0CCFF054625
:1012400002F0E7F81FFA80FA51464FF0804001F0B3
:10125000FBFA00214FF0804001F0ECFA09E0002C8D
:1012600007DC00214FF0804001F0EEFA00200D492C
:101270004860B9F1000F05D100200A4948800B49A8
:10128000086007E0B9F1010F04D101200549488049
:1012900006490860BDE8F08784020020CDCCCCCCA4
:1012A000CCCCEC3F400100200000E03FA88121426F
:1012B0000648804706480047FEE7FEE7FEE7FEE7F0
:1012C000FEE7FEE7FEE7FEE7FEE7FEE75103000864
:1012D0003101000831490143314A1160704770B54E
:1012E000002100230F22C4780CB32D4C246804F491
:1012F000E064C4F5E064210AC1F10403CA40447803
:1013000004FA03F18478144021430901254C06783E
:10131000A155047804F01F050124AC4005786D1137
:101320004FF0E02606EB8505C5F8004109E004789A
:1013300004F01F050124AC401B4D0678761145F8DA
:10134000264070BD194A0A400243154B1B1F1A6004
:10135000704739B1124A121D12680243104B1B1D0F
:101360001A6006E00E4A121D126882430C4B1B1DC8
:101370001A607047042808D14FF0E021096941F054
:1013800004014FF0E022116107E04FF0E02109690C
:1013900021F004014FF0E022116170470000FA05CE
:1013A0000CED00E000E400E080E100E080FFFF1FC2
:1013B00010B50446CA48844208D10121042000F037
:1013C00027FB0021042000F023FB46E0C5488442AF
:1013D00008D10121082000F01BFB0021082000F0AB
:1013E00017FB3AE0C048844208D10121102000F0E8
:1013F0000FFB0021102000F00BFB2EE0BB488442C5
:1014000008D10121202000F003FB0021202000F062
:10141000FFFA22E0B648844208D10121402000F0C2
:10142000F7FA0021402000F0F3FA16E0B1488442B8
:1014300008D10121802000F0EBFA0021802000F08B
:10144000E7FA0AE0AC48844207D10121801500F098
:10145000DFFA0021A01500F0DBFA10BD10B5012164
:10146000084600F0D5FA0021012000F0D1FA10BDA5
:101470002DE9F0410246002500260020002300242B
:10148000002791F803C00CF00F0591F803C01CF081
:10149000100F03D091F802C04CEA050591F800C086
:1014A000BCF1000F31D0146800202BE04FF0010C8C
:1014B0000CFA00F3B1F800C00CEA03069E4220D1FA
:1014C00083004FF00F0C0CFA03F7BC4305FA03FC42
:1014D0004CEA040491F803C0BCF1280F06D14FF088
:1014E000010C0CFA00FCC2F814C00AE091F803C029
:1014F000BCF1480F05D14FF0010C0CFA00FCC2F80A
:1015000010C0401C0828D1D31460B1F800C0BCF151
:10151000FF0F34DD546800202EE000F1080C4FF07E
:10152000010808FA0CF3B1F800C00CEA03069E4269
:1015300021D183004FF00F0C0CFA03F7BC4305FADE
:1015400003FC4CEA040491F803C0BCF1280F05D158
:1015500000F1080C08FA0CF8C2F8148091F803C0E6
:10156000BCF1480F07D100F1080C4FF0010808FA50
:101570000CF8C2F81080401C0828CED35460BDE897
:10158000F0814FF6FF710180022181700421C1704A
:1015900070470246002093680B4201D0012000E012
:1015A000002070470146886880B2704702460020DC
:1015B000D3680B4201D0012000E0002070470146B3
:1015C000C86880B2704701617047416170470AB1D5
:1015D000016100E041617047C16070474FF48032A3
:1015E0000A43826181618261826982697047024631
:1015F0000020424B18684FF68073184040EA0210F2
:1016000008433E4B186070473D49C8617047F0B5CC
:101610000A46002300240021002500F00046B6F110
:10162000004F02D1354EF16901E0344E7168C0F3CC
:10163000034583B200F44016B6F5401F08D121F0EF
:1016400070612E4E766826F070662C4F7E6012E038
:1016500000F48016B6F5801F06D1032606FA05F4BD
:10166000A14341F0706106E0460D360103FA06F62B
:10167000B14341F0706122B1460D360103FA06F61E
:10168000314300F00046B6F1004F02D11B4EF1612C
:1016900001E01A4E7160F0BD30B500228B071C0FBF
:1016A0000F2303FA04F2154B08338C1053F824303F
:1016B0009343124C08348D1044F8253023468C1087
:1016C00053F824308C07240F00FA04F423430B4C06
:1016D00008348D1044F8253030BD0A490860704741
:1016E00000080140000C01400010014000140140BE
:1016F00000180140001C0140002001400000014092
:1017000000002042DC002042DD48006840F001007B
:10171000DB49086008464068DA490840D849486013
:1017200008460068D8490840D5490860084600685E
:1017300020F4802008600846406820F4FE004860DD
:101740004FF41F0088607047CD49096821F480314B
:10175000CB4A11601146096821F480211160B0F56F
:10176000803F03D0B0F5802F0ED106E0C449096850
:1017700041F48031C24A116007E0C149096841F46F
:10178000A021BF4A116000E000BF00BF704710B544
:1017900001460022002300204A11012A02D1B84C40
:1017A000236806E0022A02D1B54C236A01E0B44C5A
:1017B000636A01F01F02012494401C4201D0012001
:1017C00000E0002010BD38B5002000900024002566
:1017D00000BF3120FFF7DBFF05460098401C00905A
:1017E0000098B0F5A06F01D0002DF2D03120FFF7A6
:1017F000CEFF08B1012400E00024204638BD014698
:1018000000209F4A106820F0F80040EAC1001060F4
:1018100070479E490860704702460020984B586800
:1018200020F47C1042EA01031843954B586070473E
:1018300096490866704701460020914A506820F09A
:1018400003000843506070478D48406800F00C006A
:101850007047014600208A4A506820F0F000084393
:101860005060704701460020854A506820F4E060CF
:1018700008435060704701460020814A506820F4B8
:10188000605040EAC1005060704729B17C4A527AEA
:1018900002437B4B5A7204E0794A527A8243784B76
:1018A0005A7270477A490860704701460020744AAE
:1018B000506820F440400843506070470021754A4A
:1018C00011706F4A82F82010012802D0042808D134
:1018D00003E001216F4A117004E005216D4A117087
:1018E00000E000BF00BF70476B4908607047644963
:1018F000096A0143624A11627047674944390860C6
:10190000704730B500210022002400235C4D6D6833
:1019100005F00C0121B1042905D0082923D105E0E7
:101920005E4D056022E05D4D05601FE0544D6D6821
:1019300005F47012524D6D6805F48034022505EBF4
:1019400092421CB9564D554305600BE04C4D6D68F5
:1019500015F4003F03D0524D5543056002E04F4D52
:101960005543056002E04D4D056000BF00BF444D8A
:101970006D6805F0F00109094A4D6B5C0568DD40B2
:1019800045603F4D6D6805F4E061090A454D6B5CAB
:101990004568DD4085603A4D6D6805F46051C90ABF
:1019A000404D6B5C4568DD40C560354D6D6805F4A4
:1019B0004041890B3C4D6B5CC568B5FBF3F5056197
:1019C00030BD29B12E4A526902432D4B5A6104E0C1
:1019D0002B4A526982432A4B5A61704729B1284ADF
:1019E00092690243264B9A6104E0254A9269824338
:1019F000234B9A61704729B1214AD2690243204B97
:101A0000DA6104E01E4AD26982431D4BDA617047F5
:101A100029B11B4AD2680243194BDA6004E0184A24
:101A2000D2688243164BDA60704729B1144A1269B2
:101A30000243134B1A6104E0114A12698243104BAE
:101A40001A61704714494039086070470F49C864EB
:101A500070470B49C87170470948406A40F0807070
:101A600007494862704701460020054A92680A42C9
:101A700001D0012000E000207047014988727047C2
:101A8000001002400000FFF8FFFFF6FE0000424297
:101A9000D8004242201002408004424200127A00E4
:101AA00000093D005D0000206D00002010B50446D7
:101AB000FE48844208D10121C014FFF7A9FF00218C
:101AC000E014FFF7A5FFC4E0B4F1804F08D1012175
:101AD0000846FFF7AAFF00210120FFF7A6FFB8E0A4
:101AE000F348844208D101210220FFF79EFF002124
:101AF0000220FFF79AFFACE0EE48844208D10121B2
:101B00000420FFF792FF00210420FFF78EFFA0E0E2
:101B1000E948844208D101210820FFF786FF00210F
:101B20000820FFF782FF94E0E448844208D10121B5
:101B30001020FFF77AFF00211020FFF776FF88E0E2
:101B4000DF48844208D101212020FFF76EFF0021E9
:101B50002020FFF76AFF7CE0DA48844208D10121A7
:101B60004014FFF755FF00216014FFF751FF70E0AC
:101B7000D548844209D10121C804FFF749FF00215B
:101B80004FF40020FFF744FF63E0D048844209D1BE
:101B900001210805FFF73CFF00214FF48010FFF7FB
:101BA00037FF56E0CA48844209D101214805FFF7B2
:101BB0002FFF00214FF40010FFF72AFF49E0C5482E
:101BC000844208D101214020FFF72FFF002140204F
:101BD000FFF72BFF3DE0C048844208D1012180205F
:101BE000FFF723FF00218020FFF71FFF31E0BB48F4
:101BF000844208D101218015FFF717FF0021A015AD
:101C0000FFF713FF25E0B648844209D101210804FB
:101C1000FFF7FEFE00214FF48030FFF7F9FE18E0D9
:101C2000B048844209D101214804FFF7F1FE0021A8
:101C30004FF40030FFF7ECFE0BE0AB48844208D1D4
:101C400001218804FFF7E4FE00214FF48020FFF714
:101C5000DFFE10BD00220288944B98420ED0994BB3
:101C600098420BD0B0F1804F08D0914B984205D0EC
:101C7000904B984202D0904B984204D14FF68F730C
:101C80001A404B881A438D4B984207D08C4B984290
:101C900004D04FF6FF431A40CB881A4302808B884A
:101CA00083850B880385814B98420BD0854B9842E6
:101CB00008D08B4B984205D08A4B984202D08A4B71
:101CC000984201D10B7A038601238382704770B555
:101CD000002400220023058C4FF6FE763540058453
:101CE000028C8388048B4FF68F752C40B51E2C40D8
:101CF0000D882C43751E2A400D892A434D882A439E
:101D00006A4DA8420BD06F4DA84208D0744DA8422E
:101D100005D0744DA84202D0734DA84213D14FF69E
:101D2000F7752A404D892A434FF6FB752A408D8866
:101D30002A434FF6FF652B404FF6FF552B408D8908
:101D40002B43CD892B4383800483CD8885860284F1
:101D500070BD70B5002400220023058C4FF6EF768D
:101D600035400584028C8388048B48F6FF752C402F
:101D70004FF6FF452C400D884FF6FF7606EA052505
:101D80002C434FF6DF752A400D8906EA05152A43D4
:101D90004D8806EA05152A43444DA84202D0494D14
:101DA000A8421DD14FF67F752A404D894FF6FF7628
:101DB00006EA05152A434FF6BF752A408D8806EAC4
:101DC00005152A434FF6FF352B404FF2FF752B4088
:101DD0008D8906EA85052B43CD8906EA85052B43C7
:101DE00083800483CD880587028470BD70B500248C
:101DF00000220023058C4FF6FF6635400584028CD7
:101E00008388848B4FF68F752C404FF6FC752C40E1
:101E10000D882C434FF6FF552A400D894FF6FF766B
:101E200006EA05252A434D8806EA05252A431F4D63
:101E3000A84202D0234DA8421DD14FF2FF752A407F
:101E40004D894FF6FF7606EA05252A434FF6FF3502
:101E50002A408D8806EA05252A434EF6FF752B4059
:101E60004DF6FF752B408D8906EA05152B43CD896C
:101E700006EA05152B4383808483CD8885870284F9
:101E800070BD70B5002200230024058C4EF6FF764D
:101E900035400584038C8488828B48F6FF752A4080
:101EA0004FF6FF452A400D8820E00000002C01403D
:101EB0000004004000080040000C004000100040FA
:101EC0000014004000340140004C0140005001402B
:101ED0000054014000180040001C00400020004059
:101EE0000040014000440140004801404FF6FF76A9
:101EF00006EA05252A434DF6FF752B400D8906EAB3
:101F000005352B434D8806EA05352B43FA4DA8428B
:101F100002D0FA4DA84208D14BF6FF752C408D89AE
:101F20004FF6FF7606EA85152C4384808283CD88A0
:101F3000A0F84050038470BD828B4FF2FF331A40EB
:101F40008283828B4FF6FF7303EA01231A43828355
:101F50007047F0B50C461546002200210026078C7C
:101F60004EF6FF7C07EA0C070784828B018C4FF644
:101F7000FF7707EA043640F6FF473A404FF6FF770F
:101F800007EA05273A434FF6FF7707EA03373A4354
:101F9000D94FB8420ED0D94FB8420BD0B0F1804FD4
:101FA00008D0D74FB84205D0D64FB84202D0D64F4E
:101FB000B84206D14DF6FF77394046F48057394391
:101FC00005E047F6FF57394044F480573943828390
:101FD0000184F0BD828B4FF6F3731A408283828BAB
:101FE0000A4382837047F0B50C4615460022002153
:101FF0000026078C4FF6FF6C07EA0C070784828BDC
:10200000018C4FF6FF7707EA04264FF60C773A402B
:102010004FF6FF7707EA03172F433A43B64FB8420C
:102020000ED0B64FB8420BD0B0F1804F08D0B44FAD
:10203000B84205D0B34FB84202D0B34FB84206D130
:102040004FF6FF57394046F48077394305E04FF2A9
:10205000FF57394044F48077394382830184F0BDCF
:10206000028B4FF2FF331A400283028B4FF6FF734D
:1020700003EA01231A4302837047F0B50C46154664
:10208000002200210026078C4FF6EF7C07EA0C07A0
:102090000784028B018C4FF6FF7707EA041640F69F
:1020A000FF473A404FF6FF7707EA03373A434FF6C8
:1020B000FF7707EA05273A438F4FB8420ED08F4F7C
:1020C000B8420BD0B0F1804F08D08D4FB84205D048
:1020D0008C4FB84202D08C4FB84206D14FF6DF7712
:1020E000394046F01007394305E04FF65F77394035
:1020F00044F01007394302830184F0BD028B4FF690
:10210000F3731A400283028B0A4302837047F0B5CF
:102110000C46154600220021068C4FF6FE773E4005
:102120000684028B018C4FF60C7632407E1C06EA48
:1021300003162E433243704EB0420ED06F4EB04263
:102140000BD0B0F1804F08D06D4EB04205D06D4E2F
:10215000B04202D06C4EB04206D14FF6FD7631400F
:1021600044F00106314305E04FF6F576314044F086
:102170000106314302830184F0BD70B505460C466B
:102180005D4885420ED05D4885420BD0B5F1804F49
:1021900008D05B48854205D05A48854202D05A484B
:1021A000854200D100E000BF208850B92389A28871
:1021B00061882846FFF7ABFFE1882846FFF79EFFBE
:1021C00025E0208804280AD12389A288618828462E
:1021D000FFF753FFE1882846FFF742FF17E020880A
:1021E00008280AD12389A28861882846FFF7FBFEC8
:1021F000E1882846FFF7EEFE09E02389A28861887E
:102200002846FFF7A6FEE1882846FFF795FE70BD39
:102210002DE9F04105460C4600260127608808B9E3
:10222000022600E00026A088012801D1022700E054
:1022300001272088A0B92389A28861882846FFF752
:1022400066FFE1882846FFF759FF23893A46314661
:102250002846FFF712FFE1882846FFF701FF13E049
:102260002389A28861882846FFF707FFE18828466E
:10227000FFF7F6FE23893A4631462846FFF747FF27
:10228000E1882846FFF73AFFBDE8F0810A884B88CD
:102290001A438B881A43CB881A430B891A434B89FC
:1022A0001A438B891A43A0F8442070474FF6FF71F8
:1022B000818000210180C18041800172704700212E
:1022C000018041808180C180018141818181C18102
:1022D0007047002101804180012181800021C1805F
:1022E000018170470021018041808180C18001818E
:1022F0004181818170470000002C01400034014081
:102300000004004000080040000C004021B1028899
:1023100042F00102028004E002884FF6FE731A4088
:102320000280704731B1B0F8442042F40042A0F876
:10233000442005E0B0F84420C2F30E02A0F8442087
:1023400070471AB183890B43838102E083898B43F1
:10235000838170478182704741EA0203A0F84830C8
:1023600070471AB183890B43838102E083898B43D1
:102370008381704701894FF6F872114001817047DF
:102380000A46002101894FF68F73194011430181DC
:10239000704730B504460D4629462046FFF7F0FF4A
:1023A000208940F00700208130BD2DE9F04104462E
:1023B0000D4616461F46602D06D13B46012231468A
:1023C0002046FFF75AFE05E03B46012231462046F3
:1023D000FFF79DFE29462046FFF7D2FF208940F0F7
:1023E00007002081BDE8F08130B50C46002101894D
:1023F000C9B24FF6FF7505EA032515432543294366
:10240000018130BD2DE9F04105460E46174698463C
:10241000002443463A4631462846FFF7E5FF2C891B
:102420004FF6F870044044F007044FF68F700440F4
:1024300044F070042C81BDE8F081F0B504460D46EF
:1024400016461F463B46324629462046FFF7CCFF3C
:10245000208940F480402081F0BD01858282704750
:102460000A46002101884FF68F73194011430180FD
:102470007047F0B50C4615461E4600210022002389
:102480000189028B038C4FF6F877394021434FF6D0
:10249000FC473A4040F201173A434FF6DD773B40A4
:1024A0004FF6FF7707EA06172F433B43018102836C
:1024B0000384F0BD0A460021018B4FF68F7319404B
:1024C0001143018370470A460021018B48F6FF73D0
:1024D00019404FF6FF7303EA022319430183704743
:1024E0000A460021818B4FF68F7319401143818377
:1024F00070470A460021818B48F6FF7319404FF65A
:10250000FF7303EA022319438183704721B10288D4
:1025100042F08002028004E002884FF67F731A4086
:102520000280704721B1828842F00402828004E078
:1025300082884FF6FB731A408280704721B18288EF
:1025400042F00802828004E082884FF6F7731A4056
:102550008280704721B1828842F00102828004E0CB
:1025600082884FF6FE731A40828070470A46002127
:10257000018B4FF6F77319401143018370470A46E8
:102580000021018B4FF2FF7319404FF6FF7303EAEE
:1025900002231943018370470A460021818B4FF6BD
:1025A000F77319401143818370470A460021818BDC
:1025B0004FF2FF7319404FF6FF7303EA02231943EA
:1025C000818370470A460021018B4FF6FB73194047
:1025D0001143018370470A460021018B4FF6FF33F8
:1025E00019404FF6FF7303EA022319430183704732
:1025F0000A460021818B4FF6FB73194011438183FA
:1026000070470A460021818B4FF6FF3319404FF681
:10261000FF7303EA02231943818370470A460021AE
:10262000018B4FF67F7319401143018370470A46AF
:102630000021018BC1F30E014FF6FF7303EA022361
:102640001943018370470A460021818B4FF67F733F
:1026500019401143818370470A460021818BC1F3E1
:102660000E014FF6FF7303EA02231943818370477B
:102670000A460021018C4FF6FD7319401143018475
:1026800070470A460021018C4FF6F7731940114339
:10269000018470470A460021018C4FF6DF73194010
:1026A0004FF6FF7303EA02131943018470470A4689
:1026B0000021018C4FF67F7319404FF6FF7303EA38
:1026C00002131943018470470A460021018C4FF61A
:1026D000FF5319404FF6FF7303EA022319430184A5
:1026E00070470A460021018C4FF2FF7319404FF6E4
:1026F000FF7303EA02231943018470470A4600214D
:10270000018C4DF6FF7319404FF6FF7303EA023355
:1027100019430184704730B5002301248C40A3B2D3
:10272000048C9C430484048C02FA01F5ADB22C4362
:10273000048430BD30B5002304248C40A3B2048C43
:102740009C430484048C02FA01F5ADB22C4304844A
:1027500030BD70B50346002000241846183001250E
:102760008D40ACB21D8CA5431D8409B1082909D147
:1027700000EB6100056825F07005056005681543EC
:1027800005600EE00D1FC5F34E052844056825F4CD
:10279000E045056005684FF6FF7606EA02263543F8
:1027A000056070BD21B1028842F00202028004E09F
:1027B00002884FF6FD731A400280704721B10288EB
:1027C00042F00402028004E002884FF6FB731A40D4
:1027D0000280704721B1828842F08002828004E04A
:1027E00082884FF67F731A408280704702884FF6C6
:1027F000F7731A40028002880A4302807047828879
:102800004FF68F731A40828082880A438280704715
:1028100002894FF6F8731A40028102890A43028145
:10282000704702894FF67F731A40028102890A437A
:102830000281704781847047818570478186704727
:102840000187704781877047A0F840107047028861
:102850004FF6FF431A40028002880A430280704705
:102860000146888E70470146088F70470146888F61
:1028700070470146B1F8400070470146888C7047A8
:102880000146088D704702460020138A0B4201D092
:10289000012000E000207047CA430282704730B533
:1028A0000246002000230024158A05EA01039589C9
:1028B00005EA010413B10CB1012000E0002030BD95
:1028C000CA4302827047000010B50446FB488442A8
:1028D00009D101218803FFF79BF800214FF48040C4
:1028E000FFF796F832E0F648844209D10121480406
:1028F000FFF79BF800214FF40030FFF796F825E032
:10290000F048844209D101218804FFF78EF80021A4
:102910004FF48020FFF789F818E0EB48844209D192
:102920000121C804FFF781F800214FF40020FFF7D0
:102930007CF80BE0E548844208D101210805FFF747
:1029400074F800214FF48010FFF76FF810BD2DE9E7
:10295000F04786B005460E460024A24600BFA146B9
:102960000027B08900B100BF2F462C8A4CF6FF70BB
:102970000440F08804432C82AC894EF6F3100440E6
:10298000B08831890843718908430443AC81AC8A1B
:102990004FF6FF400440B0890443AC8201A8FEF723
:1029A000B0FFC648874202D1DDF810A001E0DDF893
:1029B0000CA0A88910F4004F08D00AEBCA0000EB65
:1029C0000A1031684900B0FBF1F807E00AEBCA00D1
:1029D00000EB0A1031688900B0FBF1F86420B8FB05
:1029E000F0F004012009642101FB1089A88910F48A
:1029F000004F08D0322000EBC900B0FBF1F000F02E
:102A00000700044308E0322000EB09106421B0FB0A
:102A1000F1F000F00F0004432C8106B0BDE8F08710
:102A20004FF41651016000218180C18001810C2189
:102A3000418100218181704710B502460020108A33
:102A40004FF2FF0318400B884C8823438C882343A4
:102A5000CC8823431843108210BD0021018041809F
:102A60008180C180704721B1828942F40052828105
:102A700004E082894DF6FF731A4082817047F0B5F9
:102A800003460024002600250020A1F510676A3FB8
:102A900000D100BF1846C1F3421401F01F06012700
:102AA00007FA06F5012C01D10C3004E0022C01D10B
:102AB000103000E014301AB107682F43076002E0BD
:102AC0000768AF430760F0BD1AB1838A0B43838266
:102AD00002E0838A8B4383827047028A4FF6F07349
:102AE0001A400282028A0A430282704782894FF2A8
:102AF000FF731A40828182890A438281704721B123
:102B0000828942F00202828104E082894FF6FD73DD
:102B10001A4082817047028A4FF6DF731A400282A0
:102B2000028A0A430282704721B1028A42F480423B
:102B3000028204E0028A4BF6FF731A400282704759
:102B4000C1F308028280704701468888C0F30800FC
:102B50007047818941F0010181817047028BD2B2B7
:102B60000283028B42EA012202837047028B02F445
:102B70007F420283028B0A430283704721B1828A1B
:102B800042F02002828204E0828A4FF6DF731A400C
:102B90008282704721B1828A42F01002828204E070
:102BA000828A4FF6EF731A408282704721B1828A7F
:102BB00042F00802828204E0828A4FF6F7731A40DC
:102BC0008282704721B1828942F40042828103E00F
:102BD0008289C2F30E028281704721B1828A42F457
:102BE0000062828204E0828A4FF2FF731A4082827E
:102BF0007047828A4FF6FB731A408282828A0A43A8
:102C00008282704721B1828A42F00202828204E00D
:102C1000828A4FF6FD731A40828270470246002076
:102C2000B1F5007F00D100BF13880B4201D0012015
:102C300000E00020704701F40072B2F5007F00D17F
:102C400000BFCA430280704770B5024600240023CB
:102C500000250020A1F510666A3E00D100BFC1F337
:102C6000421501F01F03012606FA03F3012D02D1DC
:102C70009689334006E0022D02D1168A334001E0E6
:102C8000968A33400C12012606FA04F41688344062
:102C900013B10CB1012000E0002070BD10B500227E
:102CA0000023A1F510646A3C00D100BF0A12012480
:102CB0009440A3B2DC43048010BD00000038014002
:102CC0000044004000480040004C004000500040DC
:102CD000002044490860091D0860091D0860091D9D
:102CE000086041483F4914310860704700213D4960
:102CF0008279002A3AD00A46126803689A430B4642
:102D00001A600A1D126803689A430B1D1A60027943
:102D100011440A6803681A430A60324A083212688A
:102D200003689A432F4B08331A601A1D1268036810
:102D30009A432C4B0C331A604279102A0ED11A1F79
:102D4000126803681A43274B08331A601A1D126869
:102D500003681A43234B0C331A600DE02149427972
:102D600011440A6803681A430A6005E002791144B5
:102D70000A6803689A430A60704700210160017184
:102D80000C21417100218171704716491031096889
:102D90000143144A10321160704701460020114A65
:102DA000143212680A4201D0012000E0002070476E
:102DB0000C49143108607047014600200022094B7D
:102DC0001B6803EA0102074B14331B680B4202D055
:102DD0000AB1012000E00020704702491431086068
:102DE0007047000000040140FFFF0F0001684FF62C
:102DF000FE72114001600021016041608160C1608C
:102E00008C49884208D18B490839496841F00F0143
:102E1000884A083A51608AE086491431884208D1CC
:102E200084490839496841F0F001824A083A516002
:102E30007DE080492831884208D17E4908394968B7
:102E400041F470617B4A083A516070E079493C3145
:102E5000884208D177490839496841F47041754A78
:102E6000083A516063E073495031884208D1714992
:102E70000839496841F470216E4A083A516056E0B9
:102E80006C496431884208D16A490839496841F47B
:102E90007001684A083A516049E0664978318842D1
:102EA00008D164490839496841F07061614A083ABB
:102EB00051603CE06049884206D1011F096841F039
:102EC0000F01021F116032E05B491431884208D1C2
:102ED0005949091F096841F0F001574A121F116052
:102EE00025E055492831884208D15349091F09680E
:102EF00041F47061504A121F116018E04E493C3194
:102F0000884208D14C49091F096841F470414A4A76
:102F1000121F11600BE048495031884207D14649E1
:102F2000091F096841F47021434A121F116070475C
:102F300010B50022026847F6F0739A430C6A8B685A
:102F400023430C6923434C6923438C692343CC6995
:102F500023434C6A23438C6A23431A430260CB68A1
:102F600043600B6883604B68C36010BD0021016043
:102F700041608160C160016141618161C161016243
:102F800041628162704721B1026842F00102026031
:102F900004E002684FF6FE731A40026070471AB1EF
:102FA00003680B43036002E003688B4303607047D0
:102FB000416070470146486880B270470146002072
:102FC000002211F0805F03D01B4B083B1A6802E01F
:102FD000184B083B1A680A4201D0012000E000208B
:102FE000704710F0805F03D01349091F086002E0AA
:102FF000104908394860704701460020002211F04E
:10300000805F03D00C4B083B1A6802E0094B083B79
:103010001A680A4201D0012000E00020704710F039
:10302000805F03D00449091F086002E001490839A4
:10303000486070470800024008040240D2B201E034
:1030400000F8012B491EFBD270470022F6E710B5AD
:1030500013460A4604461946FFF7F0FF204610BD06
:10306000421C10F8011B0029FBD1801A704770B573
:10307000064600F0FFFD046805460A22002130469E
:1030800000F0CEFA2C6070BD2DE9FE4F804681EA3B
:103090000300C00F0C46009021F0004123F00045D2
:1030A000B8EB0200A94105D24046214690461C4695
:1030B0000B46024623F00040104304D1404621460F
:1030C00003B0BDE8F08F270DC7F30A00C3F30A5120
:1030D0000290401A0190402866DAC3F3130040F4CE
:1030E000801B0098924620B10023D2EB030A63EBC9
:1030F0000B0B01985946C0F14002504600F010FAFF
:1031000006460D4650465946019A00F028FA10EB43
:1031100008006141002487EA115284EAE7731A43E8
:103120003BD0009A3AB3019A012A4FEA075210DCC9
:10313000001B61EB02014FF0004202EA0752CDE9A9
:103140000042001C41F5801132462B4600F0E3FAA4
:10315000B6E7001B61EB0201001C41F5801300186B
:103160005B412018A2F5001747EB030140EAD57038
:10317000B6196D4111E06D084FEA360645EAC07593
:103180004FEA0752001B61EB0201001C41F5801160
:1031900049084FEA30000019514132462B4603B02E
:1031A000BDE8F04F00F0AABA0098012240000023C9
:1031B000D0EB020263EBE073009821464FEAE07423
:1031C000B8EB000061EB0401E9E783F000435BE743
:1031D00081F0004158E72DE9FE4F81EA030404F035
:1031E000004421F0004100944FF0000B23F0004315
:1031F00050EA010402D052EA030404D1002001463F
:1032000003B0BDE8F08FC3F30A54C1F30A552C4450
:10321000A4F2F3340194A0FB0254C1F3130141F46E
:103220008011C3F3130343F4801301FB024400FB3A
:10323000034E840A970A44EA815447EA8357A4FB61
:10324000076802958D0A05FB07854FEA932C04FB5E
:103250000C542705029D4FEA065847EA1637B5EB8E
:1032600008056EEB070C870E920E47EA811742EABB
:103270008312A7FB0201B6EB0B0164EB00042B0DDC
:1032800043EA0C335E1844EB1C50DA465146E7FB28
:103290000201C5F313044FEA0B3343EA14534FEA18
:1032A0000432019C43EA0603A4F10C040294009C3E
:1032B000CDE900B400F02FFAA2E72DE9F04D81EA44
:1032C000030404F0004B21F0004514464FF0000ABF
:1032D00023F0004150EA050220D054EA01021DD03B
:1032E000C5F30A570246C5F31303C1F31300C1F334
:1032F0000A5640F4801543F48013A7EB0608101B10
:10330000D64608F2FD3873EB050002D308F1010838
:1033100001E092185B41B8F1000F03DA002001468A
:10332000BDE8F08D00204FF48011064684460EE083
:10333000171B73EB050705D3121B63EB050306434D
:103340004CEA010C49084FEA300092185B4150EA00
:103350000107EDD152EA030012D082EA040083EAA9
:103360000501084303D100224FF0004308E0101B81
:10337000AB4102D20122002302E06FF001025310A0
:103380001AEB06004CEB085110EB0A0041EB0B0165
:10339000BDE8F04D00F0B2B90EB5C10F80EAE070A3
:1033A0000844CA07002140F233438DE80E000A4664
:1033B0000B4600F0B0F903B000BD0EB540F233414A
:1033C00002910021CDE900110A460B4600F0A3F955
:1033D00003B000BD70B5C1F30A5201F000450024EE
:1033E000C1F3130140F2FF3341F480119A4201DA34
:1033F000002070BD40F233439A42A2F2334203DC14
:10340000524200F09CF800E090402C43F1D0404242
:1034100070BDC1F30A5210B5C1F3130140F2FF337E
:1034200041F480119A4201DA002010BD40F233438A
:103430009A42A2F2334203DC524200F080F810BDFF
:10344000904010BD00F0004230F000400AD0C10DA5
:1034500001F56071C0F3160042EA0151C20840074D
:1034600011437047002001467047000030B5002925
:1034700004DB4FF00044404264EB0101002B04DB0D
:103480004FF00044524264EB03038B4208BF824278
:1034900030BD000030B5002904DB4FF0004440424D
:1034A00064EB0101002B04DB4FF00044524264EB5B
:1034B0000303994208BF904230BD000001F0004371
:1034C00030B421F0004150EA010206D00A0DA2F505
:1034D0006072C1F31301002A02DC30BC0020704787
:1034E000440F44EAC104C100E01830BC00EBC250F4
:1034F00000F0CEB830B50B46014600202022012452
:1035000009E021FA02F59D4205D303FA02F5491BB1
:1035100004FA02F52844151EA2F10102F1DC30BDC7
:10352000202A04DB203A00FA02F100207047914083
:10353000C2F1200320FA03F3194390407047202A78
:1035400004DB203A21FA02F00021704721FA02F34D
:10355000D040C2F120029140084319467047202A0A
:1035600006DBCB17203A41FA02F043EAE07306E0AB
:1035700041FA02F3D040C2F12002914008431946BB
:10358000704700000FB4002300B589B00CA900916A
:103590000B996FF00042CB601E4B06931E4B0793B6
:1035A0000423CDE901321D4A089202466B460020F1
:1035B00000F0A4F909B05DF814FB70B586B00646BA
:1035C0004FF0FF300091CDE90101002015460C4677
:1035D00004903246694604A8FFF7D4FF03460498D6
:1035E000211825B108B10A4600E022462A600028C9
:1035F0000DD0002B02DD0098884208D0081B0094F3
:10360000CDE901043246694604A8FFF7BBFF06B0C6
:1036100070BD0000393B0008573B0008E93700083F
:103620002DE9F04791460F4680460446002614F8DF
:10363000015B2DB100F0D4F80068405DC007F6D101
:103640002B2D02D02D2D18D0641E4A463946204617
:1036500000F092FA27B13968A14201D1C7F8008081
:1036600071054FF002040BD54042002803DD00F045
:1036700001FB0460A007BDE8F08746F48066E4E73C
:103680000028F8DA00F0F6FA04606FF00040F2E784
:103690000029A8BF7047401C490008BF20F0010066
:1036A000704710B4B0FA80FC00FA0CF050EA010444
:1036B00004BF10BC704749B1CCF1200421FA04F4D6
:1036C00011FA0CF118BF012121430843A3EB0C01AF
:1036D000CB1D0106000A002BBEBF002010BC7047A6
:1036E00000EBC35010440029A4BF10BC7047401C1D
:1036F000490008BF20F0010010BC704710B5002B36
:1037000008DA401C41F1000192185B411A4301D1D3
:1037100020F0010010BD2DE9F04D92469B4611B1FD
:10372000B1FA81F202E0B0FA80F220329046FFF75F
:10373000F7FE04460F4640EA0A0041EA0B015346F1
:103740005A46084303D120463946BDE8F08D11465C
:1037500053EA010015D0C8F140025046FFF7EFFED2
:1037600005460E46504659464246FFF7D9FE0843E5
:1037700001D0012000E00020054346EAE0762C431A
:1037800037430A984FEA4453A0EB08004FEAD42489
:103790000A304FF0000244EA47544FEAD72502D5D9
:1037A00000200146D1E7010510196941DDE908450E
:1037B00000196941BDE8F04DA0E70000064C074D37
:1037C00006E0E06840F0010394E8070098471034F1
:1037D000AC42F6D3FCF7B0FCC8400008E840000853
:1037E00000487047C440000810B50446FFF7F8FFD2
:1037F0000068005D00F0010010BD00002DE9FF4FE2
:10380000087881B09946FF2805D0491C2D2804D09E
:103810000024002308E000230BE00124F9E703EB78
:10382000830300EB4303491C0878FF28F7D104B158
:103830005B4200200090147801462D2C01D02B2CE7
:1038400004D1521C2D2C12D000240094002516788F
:10385000FF2E0ED00A24A0FB04C801FB0481002720
:1038600000FB0711521C16EB0C006941EFE7012425
:10387000EBE7994450EA010206D101980021C0E922
:10388000001105B0BDE8F08F0024A84D2646DFF8F2
:10389000A08200F0CEF982468B46B9F1000002DA30
:1038A000C9F1000714E0074612E0F80707D02246E6
:1038B0002B4630464146FFF78EFC06468846224698
:1038C0002B4610461946FFF786FC04460D467F102E
:1038D000002FEAD1B9F1000F32464346504659460F
:1038E00002DAFFF7EAFC01E0FFF775FC009A0AB183
:1038F00081F00041019AC2E90001C2E72DE9FF4FC2
:103900001F468DB0D7E901464FF0FF382E204546BF
:103910004FF000090B90B9696D1C0E988847396A01
:10392000824688470028F6D11AF101000AD024F413
:10393000D064002E12DDBAF12B0F08D0BAF12D0F92
:103940000CD102E0404611B09CE744F48064B969B0
:103950006D1C0E9888478246A6F1010669466005EF
:1039600001D52D2000E02B208DF8000001F1010B86
:103970000DF1200809E0B9696D1C0E988847824650
:103980000F98761E44F400740560002E02DDBAF133
:10399000300FF0D00B998A453ED144F0800406E008
:1039A0000F99681CA9F1010944F400740860761E9F
:1039B000B9696D1C0E98884782463028F0D02BE0FC
:1039C0000B998A4505D1200603D444F08004761E65
:1039D00018E0504600F06EF908B3761E0DF11301A1
:1039E00044F400748B4508D2AAF130000BF8010BA7
:1039F000200607D5A9F1010003E0200602D409F151
:103A000001008146A00502D50F99681C0860B969BC
:103A10006D1C0E9888478246002ED1DC54E0002EA3
:103A200052DDBAF1650F02D0BAF1450F4CD1A005B5
:103A30004AD5761EB96924F440746D1C0E988847E7
:103A40008246002E0DDD2B2804D0BAF12D0F08D1AF
:103A500044F48074B9696D1C0E9888478246A6F1BB
:103A60000106E00501D52D2100E02B2108F8011BFE
:103A7000CDF82C8021E0761E0DF1290144F400746C
:103A800088450CD2AAF1300010F0FF0088F8000041
:103A900002D10B99884509D908F1010806E0E00533
:103AA00001D5244801E042F20F708146B9696D1CCE
:103AB0000E98884782460F980560002E04DD504618
:103AC00000F0F8F80028D6D1F9690E988847FF2051
:103AD0008BF8000088F800000020069007904B4605
:103AE0006A4608A906A8FFF789FEA00502D46FF070
:103AF000010028E714F0240F0AD0E00714D1DDE913
:103B000006123868031D3B600068C0E900120BE034
:103B1000DDE90601FFF7D2FC0146E00704D1386871
:103B2000021D3A600068016028460CE7000024404E
:103B30000000F03FF1D8FFFF426842B1016811F880
:103B4000013B23B1521EC0E9001218467047012103
:103B5000C160881E704742685AB1C368016843B9A2
:103B600083688B4205D0491E521CC0E90012002018
:103B700070474FF0FF3070472DE9F05F82460078C4
:103B8000002715468B460AF10104B946302801D0BA
:103B90009DB113E014F8010B0127782803D05828B1
:103BA00001D045B10AE00DB1102D07D10027102535
:103BB00014F8010B02E0082500E00A250026B046B3
:103BC0000EE005FB080005FB06F1012701EB10469E
:103BD0001FFA80F8B6F5803F00D3B94614F8010B00
:103BE000294600F018F80028EBDABBF1000F05D0E9
:103BF0000FB1641E00E05446CBF80040B9F1000F4D
:103C000006D000F037F802210160C81EBDE8F09F21
:103C100048EA0640FAE73A2800D2303820F020027D
:103C2000412A01D3A2F13700884201D34FF0FF307F
:103C300070470EB540F2334202920022CDE90022D5
:103C40001346FFF768FD03B000BD00000FB4084B3A
:103C500010B504A902AA039800F034F8044602A99A
:103C6000002000F0D4F9204610BC5DF814FB0000E1
:103C70000F400008004870477400002001480068A9
:103C8000704700007400002002E008C8121F08C13D
:103C9000002AFAD170477047002001E001C1121FCD
:103CA000002AFBD1704700000149086070470000FE
:103CB0007400002030380A2801D20120704700200B
:103CC000704700002DE9FF4F8BB08846054600265F
:103CD00067E125287AD100246D1CB649A146A24689
:103CE00001222B78203B02FA03F0084202D0044361
:103CF0006D1CF6E728782A2810D06FF02F0228785C
:103D0000A0F13001092915D809EB890102EB410125
:103D100044F0020400EB01096D1CF0E758F8049B25
:103D2000B9F1000F03DA44F40054C9F1000944F07A
:103D300002046D1C28782E2817D115F8010F44F0C5
:103D400004042A280ED06FF02F022878A0F1300149
:103D500009290AD80AEB8A0102EB410100EB010AAA
:103D60006D1CF2E758F804AB6D1C28786C280FD056
:103D700006DC4C2817D068280DD06A2814D104E03E
:103D8000742810D07A280FD10DE044F400140AE012
:103D900044F4801401E044F440146978814202D173
:103DA0006D1C04F580146D1C2878692866D007DC2A
:103DB000002876D0632828D0642807D15EE005E08B
:103DC0006E2808D073282AD075287AD0DDE90D1224
:103DD0009047761CE4E0C4F30250022809D003287F
:103DE0000DD0D8F8001004280DD00E6008F104089A
:103DF000D6E0D8F80010F217C1E90062F6E7D8F86B
:103E000000100E80F2E70E70F0E718F8041B8DF832
:103E1000001000208DF80100EB46012003E058F867
:103E200004BB4FF0FF3061074FF0000701D40AE0F8
:103E30007F1C57450DDA8742FADB1BF80710002973
:103E4000F6D106E07F1C8742FCDB1BF80710002937
:103E5000F8D1DDE90D23A9EB07008146214600F0EA
:103E6000BEF83044C61904E0DDE90D121BF8010B61
:103E700090477F1EF8D2214648468CE058F8040B44
:103E8000C4F302514FF00A0B032900D100B20429F8
:103E900000D140B2002806DAC0F100004FF02D0139
:103EA00004E082E00DE0210504D52B218DF82410DB
:103EB000012103E0E10710D02021F7E708AF0891C6
:103EC00014E058F8040BC4F302514FF00A0B032915
:103ED00000D180B2042900D1C0B20021EEE75946DA
:103EE000FFF708FB01F1300107F8011D0028F6D1AA
:103EF000ADEB070000F1200B600702D524F48034FD
:103F000001E04FF0010ADA4502DDAAEB0B0000E008
:103F10000020824600EB0B0108980144A9EB010048
:103F20000A90E00306D4DDE90D2321460A9800F04B
:103F300056F80644002008E009A911F80900DDE957
:103F40000D129047761C09F10100089981468842BC
:103F5000F2DBE0030CD5DDE90D2321460A9800F0E1
:103F60003EF8064404E0DDE90D1230209047761C4F
:103F7000BAF10001AAF1010AF5DC05E0DDE90D1254
:103F800017F8010B9047761CBBF10001ABF1010B58
:103F9000F4DC0A982146DDE90D2300F00DF8064413
:103FA0006D1C287800287FF494AE0FB03046BDE831
:103FB000F08F0000092801002DE9F041044600259A
:103FC0001E461746880405D406E039462020B0472F
:103FD00005F10105641EF8D52846BDE8F0812DE9FC
:103FE000F041044600251E469046C80301D53027FF
:103FF00000E02027880405D506E041463846B04752
:1040000005F10105641EF8D52846BDE8F0810A686F
:10401000531C0B601070704730B583B0044600200D
:10402000CDE90000FFF72AFE05460022214668463A
:10403000FFF7C3FA2846FFF737FEDDE9000103B0BA
:1040400030BD00404040404040404040414141413F
:10405000414040404040404040404040404040405F
:104060004040400502020202020202020202020273
:1040700002020220202020202020202020020202F4
:104080000202020290909090909010101010101068
:10409000101010101010101010101010101002023C
:1040A00002020202888888888888080808080808A8
:1040B000080808080808080808080808080802028C
:1040C0000202400043400008E840000800000020D1
:1040D00078000000883C000860410008780000205B
:1040E00018060000983C000800A24A0400000000E6
:1040F0000000000001020304060708090000000098
:1041000000000000000000000100000000000000AE
:10411000000000000000000000000000000000009F
:10412000000000000000000000000000000000008F
:10413000000000000000000000000000000000007F
:10414000000000000000000000010203040102035F
:104150000406070809020406080000000000000029
:0400000508000131BD
:00000001FF
