:020000040800F2
:1000000020060020691D0008590200085B02000854
:100010005F02000863020008670200080000000099
:100020000000000000000000000000006B0200085B
:100030006D020008000000006F0200087102000855
:10004000831D0008831D0008831D0008831D000810
:10005000831D0008831D0008831D0008831D000800
:10006000831D0008831D0008831D0008831D0008F0
:10007000831D0008831D0008831D0008831D0008E0
:10008000831D0008831D0008831D0008831D0008D0
:10009000831D0008831D0008831D0008831D0008C0
:1000A000831D0008831D0008831D0008831D0008B0
:1000B000331C0008E90B0008ED1C0008831D000834
:1000C000831D0008831D0008831D0008831D000890
:1000D000831D0008FF040008831D0008831D00081D
:1000E000831D0008831D0008831D0008831D000870
:1000F000831D0008831D0008831D0008831D000860
:10010000831D0008831D0008831D0008831D00084F
:10011000831D0008831D0008831D0008831D00083F
:10012000831D0008831D0008831D0008831D00082F
:10013000DFF80CD003F018FF004800474501000825
:100140002006002000F0D3F94FF4E13000F080F9F0
:1001500000F0CDF901F05AFC00F0BAFA00F0CEFA46
:1001600001F0BCFC00F0BCFB00F07CFB00F004FBE9
:1001700001F086FD00F0DDFB00F0C8FB50E00EE072
:1001800000202849086000F013FC044622460B4674
:1001900025A003F05DFF4FF4FA7001F073FC2748CF
:1001A00000681028ECD00DE000201E49086000F027
:1001B00013FC0446214622A003F04AFF4FF4FA70D4
:1001C00001F060FC1D4800682028EDD007E0002009
:1001D0001449086000F0E2FCFF2018490860174845
:1001E00000688028F3D002E001200E49086013481F
:1001F0000068FF28F8D00FE000200A490860154881
:10020000007810F0010F07D01248007800F0FE00CF
:100210001049086001F016F8084800684028EBD043
:10022000ADE700008801214241637574616C416E45
:10023000676C65203D202566200A0000180000201C
:1002400041637574616C416E676C65203D20256467
:10025000200A000040000020704700BFFEE700BFFA
:10026000FEE700BFFEE700BFFEE77047704770473C
:10027000704700000CB50020019000906B480068AA
:1002800040F480306949086000BF6848006800F4A5
:10029000003000900198401C0190009818B9019816
:1002A000B0F5A06FF1D16148006810F4003F02D0B2
:1002B0000120009001E0002000900098012842D128
:1002C0005B48006840F01000594908600846006823
:1002D00020F0030008600846006840F00200086053
:1002E000524840685149486008464068486008469E
:1002F000406840F4806048600846406820F47C1004
:1003000048600846406840F4E810486008460068C5
:1003100040F08070086000BF4448006810F0007F23
:10032000FAD04248406820F003004049486008463F
:10033000406840F00200486000BF3C48406800F060
:100340000C000828F9D10CBD10B5FFF793FF10BDC4
:1003500010B53648006840F001003449086008468E
:1003600040683449084031494860084600683249CD
:1003700008402E4908600846006820F48020086084
:100380000846406820F4FE0048604FF41F00886073
:10039000FFF7DAFF4FF000602849086010BD10B584
:1003A000002100200022214B5B6803F00C0121B1E9
:1003B000042906D0082928D107E0214B214C2360CD
:1003C00027E01F4B1F4C236023E0184B5B6803F4AE
:1003D0007010164B5B6803F48032022303EB9040ED
:1003E00022B9194B4343174C23600DE00F4B5B6858
:1003F00013F4003F04D0144B4343124C236003E03A
:100400000F4B43430F4C236003E00D4B0D4C236017
:1004100000BF00BF054B5B68C3F303130B4CE15CEB
:10042000084B1B68CB40074C236010BD00100240F6
:10043000002002400000FFF8FFFFF6FE08ED00E09C
:1004400000127A000000002000093D000400002096
:1004500010B586B00446012144F2040002F01AF8F7
:10046000924802F08DFF4FF40070ADF814000320A5
:100470008DF8160018208DF8170005A98C4801F09A
:1004800053FD4FF48060ADF8140004208DF8170080
:1004900005A9874801F048FD01940020ADF8080047
:1004A000ADF80A00ADF80C00ADF810000C20ADF866
:1004B0000E0001A97D4802F0A6FF25208DF800005E
:1004C00000208DF801008DF8020001208DF8030056
:1004D000684601F060FC012240F22551734803F0A8
:1004E0002AF80121714803F01AF806B010BD9020D7
:1004F00070490870702048708020887070472DE91E
:10050000F04140F22551694803F0E4F8002872D028
:10051000664803F075F8C5B2FF2D04D1664800782F
:10052000401C6549087000260BE06248805DA842C7
:1005300005D101206149087000205F490870701CD6
:10054000C6B2032EF1DB5C480078B0B95B48007896
:10055000012812D15A485B490988455459480088F6
:10056000401C5849088008460088C72805DD00203F
:10057000088051490870514908704F480078032895
:1005800070D14E48007801286CD14E480078801E0A
:10059000C7B20F214C4803F0FEF80F2F62DA002497
:1005A00006E04749A01C095C47480155601CC4B2DD
:1005B000BC42F6DB002043490880404908703E49B0
:1005C00008703F4840789138092849D2DFE800F0A8
:1005D00044403C383430142205003B4803F0E6F830
:1005E00039490C3988800B461A7919881B8998B2C9
:1005F00001F0D0FA35E03AE0334803F0D7F8324959
:100600000C3988600B461A7919881B8998B201F059
:10061000C1FA26E02C4803F0C9F82B490C390880B0
:100620000B461A7919881B8998B201F0B3FA18E0C1
:1006300008202649086014E010202449086010E0D2
:100640002020224908600CE040202049086008E092
:1006500080201E49086004E0FF201C49086000E07B
:1006600000BF00BF40F22551104803F073F8BDE809
:10067000F08170B504460D46E1B20C4802F0BCFFB3
:1006800000BF4021094803F025F80028F9D0204692
:1006900070BD10B5044600BF2021044803F01AF8CD
:1006A0000128F9D1014802F0ABFF10BD003801402C
:1006B000000801401C00002014000020150000204C
:1006C00068000020160000203C01002018000020D7
:1006D00008B50121042001F0DDFE0C20ADF800007A
:1006E00010208DF8030003208DF8020069460248AF
:1006F00001F01AFC08BD00000008014008B5012106
:10070000042001F0C7FE0320ADF8000048208DF85A
:1007100003006946144801F007FC08BD10B51348F2
:100720000078A8B11248006810B11248006878B982
:100730000A2001F0A7F900200C4908700C48006855
:1007400008B9012010BD0B48006858B90220F9E72C
:1007500007480068012805D106480068012801D132
:10076000024908700020EDE7000801401F0000204A
:10077000000121420401214210204F4981F820004C
:100780004E48C86101208880002088604880088029
:10079000704770B54A480078032862D1494800780C
:1007A00001285ED148480078801EC5B20F2142481A
:1007B0000C3002F0F0FF0F2D10DA002407E043495F
:1007C000A01C095C3C480C300155601CC4B2AC4212
:1007D000F5DB00203C490880394908703B484078E7
:1007E000972816D0982828D0992839D132480C302B
:1007F00002F0DCFF304988800B461A7919881B8982
:1008000098B201F0C7F92C488188314802F0F4FE13
:1008100026E029480C3002F0C9FF274988600B46C2
:100820001A7919881B8998B201F0B4F92248008915
:1008300081B2274802F0E0FE12E01F480C3002F0BF
:10084000B5FF1D4908800B461A7919881B8998B293
:1008500001F0A0F9184881881D4802F0CDFE00BFC4
:1008600000BF70BD08B50121092001F013FE012170
:10087000184801F028FC0121174801F024FC4FF42E
:100880000060ADF8000018208DF8030003208DF8FB
:1008900002006946114801F047FB4FF48060ADF853
:1008A000000010208DF8030003208DF80200694637
:1008B0000A4801F039FB08BD300100206666E63DBC
:1008C0001400002015000020160000206800002001
:1008D000003801400003180000043000000C014003
:1008E0000021094A116251629163D1639160D16024
:1008F0001161516100209062D062116051601063FB
:1009000050631146886170475801002008B50121E5
:10091000042001F0BFFD684601F08FFBC020ADF858
:10092000000004208DF803006946B24801F0FCFA8B
:1009300008BD00B587B00121022001F0B8FDAE4826
:1009400001F010FE04A802F00DFA0020ADF810002E
:1009500040F2FF30ADF814000020ADF81600ADF8FD
:10096000120004A9A44801F0D1FE00231A46032175
:10097000A14802F0DAFA01A802F007FA0620ADF861
:100980000C0001A99C4802F054F901219A4802F098
:10099000DFFC01221146984802F02FFA0020964908
:1009A000243108800121944802F00CFA07B000BD00
:1009B00070B5914802F0BDFC064603F0DDF8044630
:1009C0000D4600228D4B2046294602F0E3FF0446E7
:1009D0000D462046294670BD10B5874802F0A9FC97
:1009E0000446204610BD2DE9F047044617469846B8
:1009F000FFF7DEFF054682480CC8284602F023FFB9
:100A00007F4A03C2052094FBF0F100FB114000284F
:100A10005AD100227B4B7A4903C903F02DF87A4A58
:100A2000C2E908010021764A11605160764801460A
:100A3000D0E90453D1E908912A46484602F0A4FFC0
:100A4000724A03C200226F4B3846414602F0A2FFB1
:100A500005462A460B466D4903C903F00DF86C4A5A
:100A600003C26B480CC800206A4903F0F7F801D8AC
:100A7000012000E00020B0F5FA6F06DC6448D0E900
:100A80000010614AC2E9021018E00022624B60497E
:100A900003C903F0F7F805D200215F485A4AC2E9BA
:100AA00002100BE000225B4B594903C903F0D6F852
:100AB00004D200215748544AC2E902105248D0E9F2
:100AC0000810514AC2E90410BDE8F0872DE9F04F43
:100AD00087B082468B4600BF00BF4FF0020000F097
:100AE000D1FF4948C0E90CABC1688068CDE9040179
:100AF0004548D0E9084500200146DDE9042303F01C
:100B0000ADF801D2012000E00020012843DA3E4880
:100B1000416B006B414A424BCDE9000102F034FFCA
:100B2000CDE902012046294603F04CF8B0F1000956
:100B300001DB494601E0C9F10001084603F00BF86A
:100B40000746DDE9022303F09DF824D22E48416BCD
:100B5000006B0022334BCDE9000102F074FECDE9B9
:100B600002012046294603F02DF8061E01DB31461E
:100B700000E07142084602F0EEFF0746DDE902237D
:100B800003F06CF807D22048C0E90E4520462946FC
:100B900007B0BDE8F08F00200146F9E7F8B522481C
:100BA000C169224802F00FFE054602F0F2FF04463A
:100BB00017E00122114640F6B83000F0EBFF641E4A
:100BC0004FF47A7000F05EFF4FF47A7000F05AFF35
:100BD000FFF7EEFE05462A460B4615A0009403F0EB
:100BE00037FA012CE5DAF8BD10B50121024802F010
:100BF000AFFB10BD00080140000400400080D63F5C
:100C0000200000200000144058010020280000208F
:100C10003000002000409FC000409F409A99999961
:100C20009999B93F0000F03F300100200000B44323
:100C300041637475616C5F5A505F416E676C6520EB
:100C40003D20256620496E205465737452616E679D
:100C500065203D2025640A002DE9FF5FFD48FE491F
:100C6000086000204860FD4888600021FC48FA4A7E
:100C7000C2E90C101146D1E91201C2E91001FFF7D7
:100C800097FEF54AC2E9120111460846D1E9104320
:100C90002246D0E91261304602F076FEEE4AC2E901
:100CA000040110460146D0E91243D1E90C61224605
:100CB000304602F069FEE84AC2E906011146D1E970
:100CC0000401C2E908011146D1E90661E54AE64B93
:100CD000304602F05FFE04460D46DF49D1E90A6363
:100CE0003246294602F0AFFDDB4AC2E90A0111464D
:100CF000886802F09FFF0446D748D0E9086332466F
:100D0000204602F047FECDE90201D349486802F0CF
:100D100091FF0446D048D0E90A633246204602F0EB
:100D200039FE80468946CC49086802F083FF0446B4
:100D3000C948D0E906633246204602F02BFE8246BF
:100D400042464B4602F07FFDCDE90001DDE902237A
:100D500002F079FD81F00041BF4AC2E90E01104660
:100D600000221346D0E90E41204602F08BFF2AD81C
:100D7000B948D0E90E21104602F024FF041E01DB21
:100D8000214600E06142084602F0E5FEB24AC2E9AF
:100D90000E011046D0E90E733A46B248B24902F04D
:100DA0006BFE054602F02DFF84B2AB48D0E90E2160
:100DB000104602F026FF1FFA80F90122214648461C
:100DC00000F0E8FE29E0A448D0E90E21104602F028
:100DD000F9FE041E01DB214600E06142084602F0F4
:100DE000BAFE9D4AC2E90E011046D0E90E733A469A
:100DF0009C489D4902F040FE054602F002FF84B285
:100E00009548D0E90E21104602F0FBFE1FFA80F94A
:100E100000222146484600F0BDFE032000F032FECD
:100E2000BDE8FF9F2DE9F04786B04FF0030A4FF071
:100E30007E50894908608D4848608D48886000214F
:100E40004FF08140844AC2E90C101146D1E91201E9
:100E5000C2E91001FFF7C0FD044602F07CFE7E4AA5
:100E6000C2E9120110460022824BD0E9124120460D
:100E700002F0F4FE08D37849D1E9124100227E4BFA
:100E8000204602F0FFFE02D206B0BDE8F0877248AD
:100E90000146D0E91063D1E912413246204602F002
:100EA00073FD6D4AC2E904011146D1E91263D1E92B
:100EB0000C413246204602F067FD674AC2E906014E
:100EC000504602F048FE80466348D0E90663324649
:100ED000404602F05FFD0022684BCDE9040102F0BC
:100EE000CBFD04465C48D0E90A633246204602F056
:100EF000AAFC594AC2E90A01504602F02CFE0446F7
:100F00000D46554800225D4BD0E90461304602F0A1
:100F100041FD804622462B4602F0AEFD4E4AC2E914
:100F200008011146886802F085FE04460D464A49CC
:100F3000D1E908633246294602F02CFDCDE90401CF
:100F40004549486802F076FE04460D464249D1E91B
:100F50000A633246294602F01DFD804689463E4915
:100F6000086802F067FE04463B48D0E90663324653
:100F7000204602F00FFD42464B46CDE9000102F04B
:100F800062FCCDE90201DDE9042302F05CFC324A97
:100F9000C2E90E01104600221346D0E90E41204658
:100FA00002F070FE1AD82C480022354BD0E90E61B1
:100FB000304602F0EFFC044602F004FEB0F10008F7
:100FC00001DB404601E0C8F100001FFA80F9012270
:100FD00049464FF4FA6000F0DDFD19E01E49D1E901
:100FE0000E610022264B304602F0D4FC044602F08B
:100FF000E9FDB0F1000801DB404601E0C8F1000066
:101000001FFA80F9002249464FF4FA6000F0C2FD51
:101010001FFA8AF000F036FD00BF35E72DE9F04FEA
:1010200085B0032004904FF07E500B4908600020EB
:1010300048604FF07E50886000214FF08140064AA2
:10104000C2E90C101046D0E91210C2E91010FFF7E7
:10105000C3FC17E00000FAC398010020000016440A
:1010600000806640FA7E6ABC7493683F6F12833AD0
:1010700017B7D1B800507D400058814000408F40E4
:1010800000000940044602F066FDF94AC2E9120177
:1010900010460022F74BD0E91241204602F0DEFD57
:1010A00008D3F3480022F44BD0E91241204602F065
:1010B000E9FD0BD200214FF0804002F021F9002120
:1010C000EB4A9163D16305B0BDE8F08FE848014673
:1010D000D0E91043D1E912612246304602F054FCB7
:1010E000E34AC2E904011146D1E90C43D1E9126196
:1010F0002246304602F048FCDD4AC2E90601049867
:1011000002F029FD8046DA48D0E906A3524640465F
:1011100002F040FC06460022D84B02F0ADFC04462B
:10112000D348D0E90A633246204602F08CFBD04A0D
:10113000C2E90A01049802F00EFD04460D46CC48AF
:101140000022CE4BD0E90461304602F023FC8046F9
:1011500022462B4602F090FCC54AC2E9080111461E
:10116000886802F067FD04460D46C149D1E908636D
:101170003246294602F00EFCCDE90201BC4948681E
:1011800002F058FD0446BA48D0E90A6332462046C8
:1011900002F000FC80468946B549086802F04AFD25
:1011A0000446B348D0E906633246204602F0F2FB1B
:1011B000824642464B4602F046FBCDE90001DDE99E
:1011C000022302F040FBAA4AC2E90E0110460022A7
:1011D0001346D0E90E41204602F040FD18D8A4493C
:1011E000D1E90E710022A64B384602F0D3FB05462A
:1011F00002F0E8FC041E01DB204600E060421FFA1A
:1012000080F90122494640F6C41000F0C3FC17E003
:101210009749D1E90E710022994B384602F0BAFB8A
:10122000054602F0CFFC041E01DB204600E06042D0
:101230001FFA80F90022494640F6C41000F0AAFCCB
:1012400000BF40E72DE9F04F87B0032006908D489E
:1012500087490860002048604FF07C50886000217A
:101260004FF08140824AC2E90C101046D0E91210BA
:10127000C2E91010FFF7B0FB044602F06CFC7C4A98
:10128000C2E91201104600227F4BD0E912412046EC
:1012900002F0E4FC08D37649D1E9124100227B4BED
:1012A000204602F0EFFC11D200214FF0804002F006
:1012B00027F800216E4A9163D1639161D1619162F7
:1012C000D1621162516207B0BDE8F08F6849D1E97F
:1012D0001043D1E912612246304602F055FB644AC0
:1012E000C2E904011146D1E90C43D1E91261224659
:1012F000304602F049FB5E4AC2E90601069802F058
:101300002AFC82465A48D0E906633246504602F02B
:1013100041FB04460022594B02F0AEFB8046894651
:101320005349D1E90A432246494602F08CFA504A11
:10133000C2E90A01069802F00EFC04460D464C482C
:1013400000224E4BD0E90461304602F023FB804678
:1013500022462B4602F090FB454AC2E9080111469D
:10136000886802F067FC04464148D0E908633246C9
:10137000204602F00FFBCDE904013D49486802F028
:1013800059FC04460D463A49D1E90A6332462946DA
:1013900002F000FB804689463549086802F04AFCA5
:1013A00004463348D0E906633246204602F0F2FA9A
:1013B000824642464B4602F046FACDE90201DDE99B
:1013C000042302F040FA2A4AC2E90E011046002224
:1013D0002B4BD0E90E71384602F0DCFA054602F0DC
:1013E000F1FB0446069802F0B6FB82468B46204885
:1013F0000022234BD0E90E51284602F0CBFA0022FE
:101400001E4BCDE9020102F0C5FA074652465B4683
:1014100002F032FBCDE9040102F0D4FB8146002C3E
:1014200001DB204600E060420246B9F1000F01DB1B
:10143000484601E0C9F10000014615A002F008FE8F
:101440000B49D1E90E4100221346204602F006FC6A
:1014500053D8074800220A4BD0E90E71384602F0F3
:1014600099FA824602F0AEFB051E1BDB28461AE005
:1014700098010020005075400058854000408F4082
:1014800000000940CDCC4C3F00507D4000588140C9
:101490006672653D25692050756C73654E756D3DAE
:1014A00025690A00684286B2069802F054FBCDE92D
:1014B0000201FE49D1E90E710022FD4B384602F0CF
:1014C00069FA82460022FB4B02F064FACDE9000182
:1014D000DDE9022302F0D0FACDE9040102F072FB4B
:1014E000041E01DB204600E060421FFA80F9012261
:1014F0003146484600F04EFB38E0EC49D1E90EA1F8
:101500000022EB4B504602F045FA074602F05AFB28
:10151000051E01DB284600E0684286B2069802F00C
:101520001AFBCDE90201E1480022E14BD0E90E713E
:10153000384602F02FFA82460022DE4B02F02AFAE9
:10154000CDE90001DDE9022302F096FACDE90401BC
:1015500002F038FB041E01DB204600E060421FFA67
:1015600080F900223146484600F014FB00BFAAE68D
:101570002DE9F04F8BB000BF00BF00BF00BF0020BF
:10158000CD49CE4A03C2CE49CE48083AC2E902103C
:10159000CD49CE48C2E904100021CD48C2E90C1063
:1015A000FFF706FACDE906010022CA4BDDE9060184
:1015B00002F054FB06D30022C74BDDE9060102F01E
:1015C00061FB02D20BB0BDE8F08FBC49D1E90C61E0
:1015D0003046DDE9062302F0D7F904460D46B74848
:1015E000D0E90663324600204FF0804102F0D2F984
:1015F000804622462B4602F0CAF982468B46AF4906
:10160000D1E908633246594602F01DF9CDE90001DF
:10161000AA48D0E904633246009802F0BBF9CDE94C
:101620000401A64822462B46D0E90261304602F06A
:10163000B1F982468B46A149D1E90663324620467C
:10164000294602F0A1F9804689469C49D1E9006308
:101650003246494602F09EF952465B46CDE900010A
:1016600002F0F1F8CDE90201DDE9042302F0EBF824
:10167000CDE908019149D1E90601904AC2E9080182
:101680001046C0E90645D0E90A613046DDE9082385
:1016900002F0D9F8894AC2E90A011046002213462D
:1016A000D0E90A61304602F0D9FA2DD88348D0E952
:1016B0000A21104602F086FAB0F1000B01DB584611
:1016C00001E0CBF1000080B205907C48D0E90A210E
:1016D000104602F077FAB0F1000A01DB514601E052
:1016E000CAF10001084602F036FA80467B4A7C4B7C
:1016F00002F0C2F9064602F084FA80B20122049098
:10170000059900F047FA2CE06C48D0E90A21104610
:1017100002F058FAB0F1000B01DB584601E0CBF1C2
:10172000000080B205906548D0E90A21104602F019
:1017300049FAB0F1000A01DB514601E0CAF10001AB
:10174000084602F008FA8046644A654B02F094F9B4
:10175000064602F056FA80B200220490059900F085
:1017600019FA022000F08EF900BF2BE72DE9F04FA7
:101770008DB000BF00BF4FF0000A00BF32200B90B9
:10178000002158484D4AC2E9001000209060D06006
:101790005548C2E904104FF08140C2E90C10FFF730
:1017A0001BF98246BAF5EA7F02DDBAF50B7F02DB50
:1017B0000DB0BDE8F08F504602F0CDF980463F48AD
:1017C000D0E90CB35A46404602F0E1F804460D4613
:1017D0003A48D0E906B35A4600204FF0804102F063
:1017E000D9F8804622462B4602F0D1F8CDE9020115
:1017F0003248D0E908834246029802F024F8CDE945
:1018000004012E49D1E904834246059902F0C2F849
:10181000CDE90801294822462B46D0E902814046FD
:1018200002F0B8F8CDE904012448D0E90683424625
:101830002046294602F0A8F8CDE900011F48D0E96A
:1018400000834246009802F0A5F8CDE90201DDE9E7
:10185000042301F0F8FFCDE90601DDE9082301F0DA
:10186000F2FF06460F461549D1E90601134AC2E9BF
:1018700008011146C1E90645084632463B46D0E913
:101880000A81404601F0DFFF0C4AC2E90A01104616
:1018900000221346D0E90A81404602F0F3F965D8E8
:1018A0000648C16A806A0022104B21E0980100209E
:1018B0000000094000408F400000F03FE801002098
:1018C0002D431CEBE2362A3F9A9999999999C9BF01
:1018D0000080664000A0644000606840FCA9F1D22E
:1018E0004D62603F000004400000F0BF000008406F
:1018F000CDE9060102F04EF8CDE9080102F062F9E7
:10190000B0F1000901DB484601E0C9F1000080B2F6
:101910000A900B9802F01FF9CDE906013748C16A19
:10192000806A0022364BCDE9000102F033F8002234
:10193000344BCDE9020102F02DF8CDE90401DDE9D7
:10194000062302F099F8CDE9080102F03BF9B0F165
:10195000000801DB404601E0C8F100001FFA80FBEF
:10196000012258460A9900F015F940E02349D1E9CF
:101970000A010022244BCDE9060102F00BF8CDE963
:10198000080102F01FF9B0F1000901DB484601E04F
:10199000C9F100001FFA80FB0B9802F0DCF8CDE9DA
:1019A00006011649D1E90A010022154BCDE90001D3
:1019B00001F0F0FF0022134BCDE9020101F0EAFF34
:1019C000CDE90401DDE9062302F056F8CDE908016E
:1019D00002F0F8F8B0F1000801DB404601E0C8F180
:1019E000000080B2002259460A9000F0D3F80B990B
:1019F00088B200F047F800BFDAE60000E8010020F6
:101A00000000094000408F400000084010B56FF012
:101A1000040000F00BFA2D4800682D49B0FBF1F0EE
:101A20002C4908700846007800EB4001C1EBC0105B
:101A30004FF6FF7101EAC0002749088010BD01463A
:101A4000244A12784A434FF0E0235A6100229A61F7
:101A50001A46126942F001021A6100BF4FF0E022FB
:101A6000106910F0010F02D010F4803FF6D04FF053
:101A7000E022126922F001024FF0E0231A610022F5
:101A80009A6170470146144A12884A434FF0E02396
:101A90005A6100229A611A46126942F001021A61E3
:101AA00000BF4FF0E022106910F0010F02D010F4D7
:101AB000803FF6D04FF0E022126922F001024FF091
:101AC000E0231A6100229A617047000000000020A4
:101AD00000127A003C0000203E000020F0B589B0E2
:101AE0004FF0804000F03EFD0121084600F0DFFC91
:101AF00040F21F30ADF81C003620ADF81800002071
:101B0000ADF81E00ADF81A008DF8200006A94FF0C0
:101B1000804000F0FBFD6020ADF808000120ADF82A
:101B20000A008107888D02F027F806464F4A504B7D
:101B300001F030FF044602F064F880B2ADF80E0008
:101B40000020ADF8100002A94FF0804000F0F5FE33
:101B50001C208DF8040000208DF8050001208DF870
:101B600006008DF8070001A800F015F9012188078B
:101B700001F0EEFB01221146900701F03EF9012130
:101B8000880701F01FF900214FF0804001F0B8FBF9
:101B900009B0F0BD2DE9F05F044689469246B9F1DF
:101BA000000F05DD3348A0F800900020314948803F
:101BB000002C24DD304890FBF4F5002D01DB284695
:101BC00000E0684286B231464FF0804001F090FB61
:101BD000284884604FF08041888D01F0CDFF074692
:101BE000224A234B01F0D6FE054602F00AF81FFAFE
:101BF00080FB59464FF0804001F082FB06E0002C4C
:101C000004DC00214FF0804001F07AFBBAF1000FB4
:101C100005D10020174988801849086007E0BAF10B
:101C2000010F04D101201349888014490860BDE8E0
:101C3000F09F10B50121880701F08DFBA0B10D4880
:101C400040880C490988884205DB00214FF080401C
:101C500001F056FB04E007484088401C05494880D5
:101C60000121880701F088FB10BD0000CDCCCCCC51
:101C7000CCCCEC3F30010020A3F91300A881214215
:101C80001FB5344800F06EFC0121042000F00FFC69
:101C90000920ADF8080041F61F40ADF8040000200F
:101CA000ADF80A00ADF806008DF80C0001A929482E
:101CB00000F02CFD1E208DF8000003208DF801009F
:101CC00001208DF802008DF80300684600F063F8EB
:101CD0000121204801F03CFB012211461D4801F082
:101CE0008CF801211B4801F06DF81FBD10B50121D2
:101CF000184801F030FB60B317480068401C1649D3
:101D0000086008460068032190FBF1F201FB120015
:101D100010B10120114908600F4800684FF4FA71B2
:101D200090FBF1F201FB120030B10D4800686FEA40
:101D300000000C49C1F8880107480068A0F56A4115
:101D4000603902D10020044908600121014801F0F6
:101D500013FB10BD0008004044000020400000209C
:101D6000880121420000214206488047064800477A
:101D7000FEE7FEE7FEE7FEE7FEE7FEE7FEE7FEE73B
:101D8000FEE7FEE751030008310100083149014335
:101D9000314A1160704770B5002100230F22C478CA
:101DA0000CB32D4C246804F4E064C4F5E064210A0B
:101DB000C1F10403CA40447804FA03F18478144062
:101DC00021430901254C0678A155047804F01F052C
:101DD0000124AC4005786D114FF0E02606EB850537
:101DE000C5F8004109E0047804F01F050124AC4067
:101DF0001B4D0678761145F8264070BD194A0A40F9
:101E00000243154B1B1F1A60704739B1124A121D4D
:101E100012680243104B1B1D1A6006E00E4A121D89
:101E2000126882430C4B1B1D1A607047042808D1AE
:101E30004FF0E021096941F004014FF0E022116107
:101E400007E04FF0E021096921F004014FF0E022A2
:101E5000116170470000FA050CED00E000E400E0BD
:101E600080E100E080FFFF1F10B50446CA488442AD
:101E700008D10121042000F027FB0021042000F0FC
:101E800023FB46E0C548844208D10121082000F028
:101E90001BFB0021082000F017FB3AE0C0488442F9
:101EA00008D10121102000F00FFB0021102000F0CC
:101EB0000BFB2EE0BB48844208D10121202000F01A
:101EC00003FB0021202000F0FFFA22E0B648844204
:101ED00008D10121402000F0F7FA0021402000F055
:101EE000F3FA16E0B148844208D10121802000F0C5
:101EF000EBFA0021802000F0E7FA0AE0AC488442C7
:101F000007D10121801500F0DFFA0021A01500F0B3
:101F1000DBFA10BD10B50121084600F0D5FA00210A
:101F2000012000F0D1FA10BD2DE9F0410246002554
:101F30000026002000230024002791F803C00CF0A5
:101F40000F0591F803C01CF0100F03D091F802C0E8
:101F50004CEA050591F800C0BCF1000F31D01468BF
:101F600000202BE04FF0010C0CFA00F3B1F800C098
:101F70000CEA03069E4220D183004FF00F0C0CFAAE
:101F800003F7BC4305FA03FC4CEA040491F803C0D0
:101F9000BCF1280F06D14FF0010C0CFA00FCC2F87E
:101FA00014C00AE091F803C0BCF1480F05D14FF00E
:101FB000010C0CFA00FCC2F810C0401C0828D1D358
:101FC0001460B1F800C0BCF1FF0F34DD546800208C
:101FD0002EE000F1080C4FF0010808FA0CF3B1F8FC
:101FE00000C00CEA03069E4221D183004FF00F0C83
:101FF0000CFA03F7BC4305FA03FC4CEA040491F81D
:1020000003C0BCF1280F05D100F1080C08FA0CF848
:10201000C2F8148091F803C0BCF1480F07D100F159
:10202000080C4FF0010808FA0CF8C2F81080401CA8
:102030000828CED35460BDE8F0814FF6FF710180CF
:10204000022181700421C17070470246002093680C
:102050000B4201D0012000E0002070470146886853
:1020600080B2704702460020D3680B4201D00120A5
:1020700000E0002070470146C86880B270470161E7
:102080007047416170470AB1016100E041617047EA
:10209000C16070474FF480320A438261816182617E
:1020A00082698269704702460020424B18684FF6E9
:1020B0008073184040EA021008433E4B1860704796
:1020C0003D49C8617047F0B50A460023002400214D
:1020D000002500F00046B6F1004F02D1354EF169FF
:1020E00001E0344E7168C0F3034583B200F440163A
:1020F000B6F5401F08D121F070612E4E766826F0AB
:1021000070662C4F7E6012E000F48016B6F5801FDA
:1021100006D1032606FA05F4A14341F0706106E0FA
:10212000460D360103FA06F6B14341F0706122B163
:10213000460D360103FA06F6314300F00046B6F1CB
:10214000004F02D11B4EF16101E01A4E7160F0BDEB
:1021500030B500228B071C0F0F2303FA04F2154B36
:1021600008338C1053F824309343124C08348D10EC
:1021700044F8253023468C1053F824308C07240F64
:1021800000FA04F423430B4C08348D1044F8253036
:1021900030BD0A490860704700080140000C01404A
:1021A000001001400014014000180140001C0140D3
:1021B000002001400000014000002042DC002042DD
:1021C000DD48006840F00100DB49086008464068CF
:1021D000DA490840D849486008460068D8490840AC
:1021E000D54908600846006820F480200860084649
:1021F000406820F4FE0048604FF41F00886070477C
:10220000CD49096821F48031CB4A11601146096833
:1022100021F480211160B0F5803F03D0B0F5802F0C
:102220000ED106E0C449096841F48031C24A116008
:1022300007E0C149096841F4A021BF4A116000E0EC
:1022400000BF00BF704710B50146002200230020E8
:102250004A11012A02D1B84C236806E0022A02D1B1
:10226000B54C236A01E0B44C636A01F01F020124FB
:1022700094401C4201D0012000E0002010BD38B580
:10228000002000900024002500BF3120FFF7DBFF75
:1022900005460098401C00900098B0F5A06F01D052
:1022A000002DF2D03120FFF7CEFF08B1012400E06D
:1022B0000024204638BD014600209F4A106820F0C7
:1022C000F80040EAC100106070479E4908607047FE
:1022D00002460020984B586820F47C1042EA010323
:1022E0001843954B586070479649086670470146F9
:1022F0000020914A506820F0030008435060704766
:102300008D48406800F00C007047014600208A4A62
:10231000506820F0F00008435060704701460020EC
:10232000854A506820F4E0600843506070470146D9
:102330000020814A506820F4605040EAC10050609B
:10234000704729B17C4A527A02437B4B5A7204E0AF
:10235000794A527A8243784B5A7270477A490860B8
:10236000704701460020744A506820F440400843FA
:10237000506070470021754A11706F4A82F8201032
:10238000012802D0042808D103E001216F4A11700E
:1023900004E005216D4A117000E000BF00BF7047E6
:1023A0006B49086070476449096A0143624A1162D7
:1023B0007047674944390860704730B500210022F2
:1023C000002400235C4D6D6805F00C0121B1042947
:1023D00005D0082923D105E05E4D056022E05D4D62
:1023E00005601FE0544D6D6805F47012524D6D6824
:1023F00005F48034022505EB92421CB9564D554335
:1024000005600BE04C4D6D6815F4003F03D0524D54
:102410005543056002E04F4D5543056002E04D4DC8
:10242000056000BF00BF444D6D6805F0F00109096B
:102430004A4D6B5C0568DD4045603F4D6D6805F4B5
:10244000E061090A454D6B5C4568DD4085603A4DA9
:102450006D6805F46051C90A404D6B5C4568DD400C
:10246000C560354D6D6805F44041890B3C4D6B5C92
:10247000C568B5FBF3F5056130BD29B12E4A526937
:1024800002432D4B5A6104E02B4A526982432A4B86
:102490005A61704729B1284A92690243264B9A61D2
:1024A00004E0254A92698243234B9A61704729B11F
:1024B000214AD2690243204BDA6104E01E4AD26904
:1024C00082431D4BDA61704729B11B4AD26802432F
:1024D000194BDA6004E0184AD2688243164BDA607E
:1024E000704729B1144A12690243134B1A6104E080
:1024F000114A12698243104B1A61704714494039DE
:10250000086070470F49C86470470B49C87170472D
:102510000948406A40F080700749486270470146A8
:102520000020054A92680A4201D0012000E0002004
:102530007047014988727047001002400000FFF8A0
:10254000FFFFF6FE00004242D80042422010024047
:102550008004424200127A0000093D004900002038
:102560005900002010B50446FE48844208D10121DC
:10257000C014FFF7A9FF0021E014FFF7A5FFC4E096
:10258000B4F1804F08D101210846FFF7AAFF0021CE
:102590000120FFF7A6FFB8E0F348844208D10121EB
:1025A0000220FFF79EFF00210220FFF79AFFACE018
:1025B000EE48844208D101210420FFF792FF002158
:1025C0000420FFF78EFFA0E0E948844208D10121F2
:1025D0000820FFF786FF00210820FFF782FF94E024
:1025E000E448844208D101211020FFF77AFF00213E
:1025F0001020FFF776FF88E0DF48844208D10121F0
:102600002020FFF76EFF00212020FFF76AFF7CE00B
:10261000DA48844208D101214014FFF755FF002118
:102620006014FFF751FF70E0D548844209D10121C1
:10263000C804FFF749FF00214FF40020FFF744FFD3
:1026400063E0D048844209D101210805FFF73CFF2F
:1026500000214FF48010FFF737FF56E0CA4884424C
:1026600009D101214805FFF72FFF00214FF4001089
:10267000FFF72AFF49E0C548844208D101214020E4
:10268000FFF72FFF00214020FFF72BFF3DE0C04860
:10269000844208D101218020FFF723FF0021802000
:1026A000FFF71FFF31E0BB48844208D101218015AC
:1026B000FFF717FF0021A015FFF713FF25E0B6482D
:1026C000844209D101210804FFF7FEFE00214FF4E6
:1026D0008030FFF7F9FE18E0B048844209D10121AB
:1026E0004804FFF7F1FE00214FF40030FFF7ECFE45
:1026F0000BE0AB48844208D101218804FFF7E4FED7
:1027000000214FF48020FFF7DFFE10BD0022028879
:10271000944B98420ED0994B98420BD0B0F1804F19
:1027200008D0914B984205D0904B984202D0904BE4
:10273000984204D14FF68F731A404B881A438D4B41
:10274000984207D08C4B984204D04FF6FF431A4072
:10275000CB881A4302808B8883850B880385814B45
:1027600098420BD0854B984208D08B4B984205D0AD
:102770008A4B984202D08A4B984201D10B7A038649
:1027800001238382704770B5002400220023058C4A
:102790004FF6FE7635400584028C8388048B4FF615
:1027A0008F752C40B51E2C400D882C43751E2A4079
:1027B0000D892A434D882A436A4DA8420BD06F4D9C
:1027C000A84208D0744DA84205D0744DA84202D04A
:1027D000734DA84213D14FF6F7752A404D892A430D
:1027E0004FF6FB752A408D882A434FF6FF652B4034
:1027F0004FF6FF552B408D892B43CD892B4383808A
:102800000483CD888586028470BD70B500240022C3
:102810000023058C4FF6EF7635400584028C8388C3
:10282000048B48F6FF752C404FF6FF452C400D8871
:102830004FF6FF7606EA05252C434FF6DF752A4052
:102840000D8906EA05152A434D8806EA05152A432F
:10285000444DA84202D0494DA8421DD14FF67F7584
:102860002A404D894FF6FF7606EA05152A434FF6B2
:10287000BF752A408D8806EA05152A434FF6FF35B5
:102880002B404FF2FF752B408D8906EA85052B43BF
:10289000CD8906EA85052B4383800483CD8805878F
:1028A000028470BD70B5002400220023058C4FF611
:1028B000FF6635400584028C8388848B4FF68F75C4
:1028C0002C404FF6FC752C400D882C434FF6FF55DD
:1028D0002A400D894FF6FF7606EA05252A434D88E2
:1028E00006EA05252A431F4DA84202D0234DA842DF
:1028F0001DD14FF2FF752A404D894FF6FF7606EA4B
:1029000005252A434FF6FF352A408D8806EA05251E
:102910002A434EF6FF752B404DF6FF752B408D89EF
:1029200006EA05152B43CD8906EA05152B4383805E
:102930008483CD888587028470BD70B50022002312
:102940000024058C4EF6FF7635400584038C848880
:10295000828B48F6FF752A404FF6FF452A400D88C6
:1029600020E00000002C014000040040000800406E
:10297000000C0040001000400014004000340140F2
:10298000004C01400050014000540140001800403C
:10299000001C004000200040004001400044014075
:1029A000004801404FF6FF7606EA05252A434DF61A
:1029B000FF752B400D8906EA05352B434D8806EA45
:1029C00005352B43FA4DA84202D0FA4DA84208D152
:1029D0004BF6FF752C408D894FF6FF7606EA85157C
:1029E0002C4384808283CD88A0F84050038470BD3E
:1029F000828B4FF2FF331A408283828B4FF6FF7334
:102A000003EA01231A4382837047F0B50C4615464A
:102A1000002200210026078C4EF6FF7C07EA0C07F7
:102A20000784828B018C4FF6FF7707EA043640F665
:102A3000FF473A404FF6FF7707EA05273A434FF63C
:102A4000FF7707EA03373A43D94FB8420ED0D94F40
:102A5000B8420BD0B0F1804F08D0D74FB84205D064
:102A6000D64FB84202D0D64FB84206D14DF6FF77C6
:102A7000394046F48057394305E047F6FF5739405F
:102A800044F48057394382830184F0BD828B4FF632
:102A9000F3731A408283828B0A4382837047F0B5B6
:102AA0000C461546002200210026078C4FF6FF6CCD
:102AB00007EA0C070784828B018C4FF6FF7707EA41
:102AC00004264FF60C773A404FF6FF7707EA0317D4
:102AD0002F433A43B64FB8420ED0B64FB8420BD050
:102AE000B0F1804F08D0B44FB84205D0B34FB842D0
:102AF00002D0B34FB84206D14FF6FF57394046F4E3
:102B00008077394305E04FF2FF57394044F480772E
:102B1000394382830184F0BD028B4FF2FF331A40A8
:102B20000283028B4FF6FF7303EA01231A430283E9
:102B30007047F0B50C461546002200210026078C90
:102B40004FF6EF7C07EA0C070784028B018C4FF6E7
:102B5000FF7707EA041640F6FF473A404FF6FF7743
:102B600007EA03373A434FF6FF7707EA05273A4368
:102B70008F4FB8420ED08F4FB8420BD0B0F1804F7C
:102B800008D08D4FB84205D08C4FB84202D08C4F40
:102B9000B84206D14FF6DF77394046F01007394387
:102BA00005E04FF65F77394044F010073943028360
:102BB0000184F0BD028B4FF6F3731A400283028B3F
:102BC0000A4302837047F0B50C46154600220021E7
:102BD000068C4FF6FE773E400684028B018C4FF642
:102BE0000C7632407E1C06EA03162E433243704EAA
:102BF000B0420ED06F4EB0420BD0B0F1804F08D033
:102C00006D4EB04205D06D4EB04202D06C4EB04217
:102C100006D14FF6FD76314044F00106314305E020
:102C20004FF6F576314044F00106314302830184CA
:102C3000F0BD70B505460C465D4885420ED05D4836
:102C400085420BD0B5F1804F08D05B48854205D056
:102C50005A48854202D05A48854200D100E000BF60
:102C6000208850B92389A28861882846FFF7ABFFE6
:102C7000E1882846FFF79EFF25E0208804280AD136
:102C80002389A28861882846FFF753FFE1882846F8
:102C9000FFF742FF17E0208808280AD12389A2887D
:102CA00061882846FFF7FBFEE1882846FFF7EEFE25
:102CB00009E02389A28861882846FFF7A6FEE188FB
:102CC0002846FFF795FE70BD2DE9F04105460C46FC
:102CD00000260127608808B9022600E00026A088A7
:102CE000012801D1022700E001272088A0B923890B
:102CF000A28861882846FFF766FFE1882846FFF72B
:102D000059FF23893A4631462846FFF712FFE188EA
:102D10002846FFF701FF13E02389A288618828462F
:102D2000FFF707FFE1882846FFF7F6FE23893A46BA
:102D300031462846FFF747FFE1882846FFF73AFF6C
:102D4000BDE8F0810A884B881A438B881A43CB88E8
:102D50001A430B891A434B891A438B891A43A0F8EB
:102D6000442070474FF6FF71818000210180C180AF
:102D70004180017270470021018041808180C180C3
:102D8000018141818181C1817047002101804180A1
:102D9000012181800021C1800181704700210180D3
:102DA00041808180C1800181418181817047000023
:102DB000002C0140003401400004004000080040A5
:102DC000000C004021B1028842F00102028004E0C0
:102DD00002884FF6FE731A400280704731B1B0F896
:102DE000442042F40042A0F8442005E0B0F844201A
:102DF000C2F30E02A0F8442070471AB183890B4336
:102E0000838102E083898B4383817047818270478D
:102E100041EA0203A0F8483070471AB183890B4396
:102E2000838102E083898B438381704701894FF658
:102E3000F8721140018170470A46002101894FF65E
:102E40008F73194011430181704730B504460D4618
:102E500029462046FFF7F0FF208940F00700208137
:102E600030BD2DE9F04104460D4616461F46602D43
:102E700006D13B46012231462046FFF75AFE05E0C7
:102E80003B46012231462046FFF79DFE294620465B
:102E9000FFF7D2FF208940F007002081BDE8F081D4
:102EA00030B50C4600210189C9B24FF6FF7505EA1D
:102EB0000325154325432943018130BD2DE9F04108
:102EC00005460E4617469846002443463A46314684
:102ED0002846FFF7E5FF2C894FF6F870044044F0D0
:102EE00007044FF68F70044044F070042C81BDE855
:102EF000F081F0B504460D4616461F463B46324665
:102F000029462046FFF7CCFF208940F480402081ED
:102F1000F0BD0185828270470A46002101884FF684
:102F20008F731940114301807047F0B50C46154668
:102F30001E460021002200230189028B038C4FF6DC
:102F4000F877394021434FF6FC473A4040F20117E9
:102F50003A434FF6DD773B404FF6FF7707EA061717
:102F60002F433B43018102830384F0BD0A460021C5
:102F7000018B4FF68F7319401143018370470A4646
:102F80000021018B48F6FF7319404FF6FF7303EAE7
:102F900002231943018370470A460021818B4FF6B3
:102FA0008F7319401143818370470A460021818B3A
:102FB00048F6FF7319404FF6FF7303EA02231943E3
:102FC0008183704721B1028842F08002028004E0D0
:102FD00002884FF67F731A400280704721B18288C1
:102FE00042F00402828004E082884FF6FB731A40AC
:102FF0008280704721B1828842F00802828004E01A
:1030000082884FF6F7731A408280704721B1828818
:1030100042F00102828004E082884FF6FE731A407B
:10302000828070470A460021018B4FF6F7731940E2
:103030001143018370470A460021018B4FF2FF7351
:1030400019404FF6FF7303EA0223194301837047C7
:103050000A460021818B4FF6F77319401143818393
:1030600070470A460021818B4FF2FF7319404FF6DB
:10307000FF7303EA02231943818370470A46002144
:10308000018B4FF6FB7319401143018370470A46C9
:103090000021018B4FF6FF3319404FF6FF7303EA0F
:1030A00002231943018370470A460021818B4FF6A2
:1030B000FB7319401143818370470A460021818BBD
:1030C0004FF6FF3319404FF6FF7303EA022319430B
:1030D000818370470A460021018B4FF67F731940A8
:1030E0001143018370470A460021018BC1F30E0191
:1030F0004FF6FF7303EA02231943018370470A4620
:103100000021818B4FF67F731940114381837047F3
:103110000A460021818BC1F30E014FF6FF7303EACB
:1031200002231943818370470A460021018C4FF620
:10313000FD7319401143018470470A460021018C38
:103140004FF6F77319401143018470470A46002176
:10315000018C4FF6DF7319404FF6FF7303EA021339
:103160001943018470470A460021018C4FF67F7392
:1031700019404FF6FF7303EA0213194301847047A5
:103180000A460021018C4FF6FF5319404FF6FF739A
:1031900003EA02231943018470470A460021018C87
:1031A0004FF2FF7319404FF6FF7303EA02231943EE
:1031B000018470470A460021018C4DF6FF731940C7
:1031C0004FF6FF7303EA023319430184704730B5A9
:1031D000002301248C40A3B2048C9C430484048CFF
:1031E00002FA01F5ADB22C43048430BD30B50023A2
:1031F00004248C40A3B2048C9C430484048C02FA03
:1032000001F5ADB22C43048430BD70B503460020F7
:1032100000241846183001258D40ACB21D8CA54302
:103220001D8409B1082909D100EB6100056825F06A
:10323000700505600568154305600EE00D1FC5F3B8
:103240004E052844056825F4E045056005684FF6FD
:10325000FF7606EA02263543056070BD21B102887B
:1032600042F00202028004E002884FF6FD731A4029
:103270000280704721B1028842F00402028004E01B
:1032800002884FF6FB731A400280704721B1828892
:1032900042F08002828004E082884FF67F731A40F9
:1032A0008280704702884FF6F7731A4002800288C6
:1032B0000A430280704782884FF68F731A408280DB
:1032C00082880A438280704702894FF6F8731A4059
:1032D000028102890A430281704702894FF67F7397
:1032E0001A40028102890A43028170478184704733
:1032F0008185704781867047018770478187704755
:10330000A0F84010704702884FF6FF431A40028031
:1033100002880A43028070470146888E7047014642
:10332000088F70470146888F70470146B1F840000A
:1033300070470146888C70470146088D70470246E9
:103340000020138A0B4201D0012000E000207047CA
:10335000CA430282704730B5024600200023002491
:10336000158A05EA0103958905EA010413B10CB138
:10337000012000E0002030BDCA43028270470000F7
:1033800010B50446FB48844209D101218803FFF7A8
:103390009BF800214FF48040FFF796F832E0F648A2
:1033A000844209D101214804FFF79BF800214FF422
:1033B0000030FFF796F825E0F048844209D101215A
:1033C0008804FFF78EF800214FF48020FFF789F87A
:1033D00018E0EB48844209D10121C804FFF781F8C5
:1033E00000214FF40020FFF77CF80BE0E548844211
:1033F00008D101210805FFF774F800214FF480106F
:10340000FFF76FF810BD2DE9F04786B005460E4670
:103410000024A24600BFA1460027B08900B100BF2A
:103420002F462C8A4CF6FF700440F08804432C820F
:10343000AC894EF6F3100440B08831890843718995
:1034400008430443AC81AC8A4FF6FF400440B08986
:103450000443AC8201A8FEF7B0FFC648874202D100
:10346000DDF810A001E0DDF80CA0A88910F4004FF1
:1034700008D00AEBCA0000EB0A1031684900B0FB23
:10348000F1F807E00AEBCA0000EB0A103168890086
:10349000B0FBF1F86420B8FBF0F0040120096421CE
:1034A00001FB1089A88910F4004F08D0322000EBEE
:1034B000C900B0FBF1F000F00700044308E032203F
:1034C00000EB09106421B0FBF1F000F00F000443A1
:1034D0002C8106B0BDE8F0874FF416510160002141
:1034E0008180C18001810C2141810021818170474F
:1034F00010B502460020108A4FF2FF0318400B88D7
:103500004C8823438C882343CC8823431843108260
:1035100010BD0021018041808180C180704721B1B0
:10352000828942F40052828104E082894DF6FF7361
:103530001A4082817047F0B503460024002600251A
:103540000020A1F510676A3F00D100BF1846C1F303
:10355000421401F01F06012707FA06F5012C01D1DC
:103560000C3004E0022C01D1103000E014301AB10C
:1035700007682F43076002E00768AF430760F0BDAC
:103580001AB1838A0B43838202E0838A8B4383824E
:103590007047028A4FF6F0731A400282028A0A4389
:1035A0000282704782894FF2FF731A4082818289BA
:1035B0000A438281704721B1828942F002028281EE
:1035C00004E082894FF6FD731A4082817047028AB7
:1035D0004FF6DF731A400282028A0A430282704762
:1035E00021B1028A42F48042028204E0028A4BF650
:1035F000FF731A4002827047C1F30802828070474D
:1036000001468888C0F308007047818941F00101B4
:1036100081817047028BD2B20283028B42EA01227F
:1036200002837047028B02F47F420283028B0A43BB
:103630000283704721B1828A42F02002828204E034
:10364000828A4FF6DF731A408282704721B1828AE4
:1036500042F01002828204E0828A4FF6EF731A4031
:103660008282704721B1828A42F00802828204E09D
:10367000828A4FF6F7731A408282704721B182899D
:1036800042F40042828103E08289C2F30E02828109
:10369000704721B1828A42F40062828204E0828A09
:1036A0004FF2FF731A4082827047828A4FF6FB7393
:1036B0001A408282828A0A438282704721B1828ABA
:1036C00042F00202828204E0828A4FF6FD731A40C1
:1036D0008282704702460020B1F5007F00D100BF12
:1036E00013880B4201D0012000E00020704701F454
:1036F0000072B2F5007F00D100BFCA43028070475C
:1037000070B502460024002300250020A1F51066B4
:103710006A3E00D100BFC1F3421501F01F0301262C
:1037200006FA03F3012D02D19689334006E0022DFB
:1037300002D1168A334001E0968A33400C120126EA
:1037400006FA04F41688344013B10CB1012000E0ED
:10375000002070BD10B500220023A1F510646A3C62
:1037600000D100BF0A1201249440A3B2DC430480BC
:1037700010BD0000003801400044004000480040F7
:10378000004C004000500040D2B201E000F8012B94
:10379000491EFBD270470022F6E710B513460A46D1
:1037A00004461946FFF7F0FF204610BD70B50646E7
:1037B00000F05EFC046805460A220021304600F055
:1037C000EDFA2C6070BD30B480EA010202F00045D1
:1037D00030F0004221F0004015D0A0B1C0F3C75333
:1037E000C2F3C754C2F31601C0F31600E41A41F441
:1037F000000140F400027D34914201D3641C00E0DA
:103800004900002C02DA30BC002070474FF4000061
:103810000023914201D3891A034340084FEA410132
:10382000F7D151B1914202D14FF0004105E002D2EF
:103830004FF0010101E06FF0010103EBC450284497
:1038400030BC00F0E3BA2DE9FE4F804681EA030068
:10385000C00F0C46009021F0004123F00045B8EB6A
:103860000200A94105D24046214690461C460B461F
:10387000024623F00040104304D14046214603B0E5
:10388000BDE8F08F270DC7F30A00C3F30A51029079
:10389000401A0190402866DAC3F3130040F4801BFD
:1038A0000098924620B10023D2EB030A63EB0B0B86
:1038B00001985946C0F14002504600F03EFA0646D3
:1038C0000D4650465946019A00F056FA10EB080092
:1038D0006141002487EA115284EAE7731A433BD01E
:1038E000009A3AB3019A012A4FEA075210DC001BF2
:1038F00061EB02014FF0004202EA0752CDE90042BB
:10390000001C41F5801132462B4600F0C2FAB6E7A2
:10391000001B61EB0201001C41F5801300185B41A4
:103920002018A2F5001747EB030140EAD570B6193D
:103930006D4111E06D084FEA360645EAC0754FEA61
:103940000752001B61EB0201001C41F58011490880
:103950004FEA30000019514132462B4603B0BDE812
:10396000F04F00F089BA0098012240000023D0EB0C
:10397000020263EBE073009821464FEAE074B8EB73
:10398000000061EB0401E9E783F000435BE781F0AD
:10399000004158E72DE9FE4F81EA030404F000449A
:1039A00021F0004100944FF0000B23F0004350EA57
:1039B000010402D052EA030404D10020014603B0FE
:1039C000BDE8F08FC3F30A54C1F30A552C44A4F2A6
:1039D000F3340194A0FB0254C1F3130141F48011AC
:1039E000C3F3130343F4801301FB024400FB034EB3
:1039F000840A970A44EA815447EA8357A4FB07687C
:103A000002958D0A05FB07854FEA932C04FB0C54A5
:103A10002705029D4FEA065847EA1637B5EB080519
:103A20006EEB070C870E920E47EA811742EA83126B
:103A3000A7FB0201B6EB0B0164EB00042B0D43EA7C
:103A40000C335E1844EB1C50DA465146E7FB02018A
:103A5000C5F313044FEA0B3343EA14534FEA04321D
:103A6000019C43EA0603A4F10C040294009CCDE9F6
:103A700000B400F00EFAA2E72DE9F04D81EA03044C
:103A800004F0004B21F0004514464FF0000A23F0EB
:103A9000004150EA050220D054EA01021DD0C5F3CE
:103AA0000A570246C5F31303C1F31300C1F30A56C4
:103AB00040F4801543F48013A7EB0608101BD6468C
:103AC00008F2FD3873EB050002D308F1010801E0AC
:103AD00092185B41B8F1000F03DA00200146BDE8FF
:103AE000F08D00204FF48011064684460EE0171B2F
:103AF00073EB050705D3121B63EB050306434CEA82
:103B0000010C49084FEA300092185B4150EA010766
:103B1000EDD152EA030012D082EA040083EA0501E3
:103B2000084303D100224FF0004308E0101BAB41D3
:103B300002D20122002302E06FF0010253101AEBBF
:103B400006004CEB085110EB0A0041EB0B01BDE8FD
:103B5000F04D00F091B90EB5C10F80EAE070084455
:103B6000CA07002140F233438DE80E000A460B4697
:103B700000F08FF903B000BD0EB540F23341029161
:103B80000021CDE900110A460B4600F082F903B08E
:103B900000BD00F0004220F00040C10DC0F316004F
:103BA00040F400007F2901DA00207047962903DCE9
:103BB000C1F19601C84001E096398840002AF4D04E
:103BC0004042704770B5C1F30A5201F0004500242D
:103BD000C1F3130140F2FF3341F480119A4201DA3C
:103BE000002070BD40F233439A42A2F2334203DC1C
:103BF000524200F0B1F800E090402C43F1D0404236
:103C000070BDC1F30A5210B5C1F3130140F2FF3386
:103C100041F480119A4201DA002010BD40F2334392
:103C20009A42A2F2334203DC524200F095F810BDF2
:103C3000904010BD00F0004230F000400AD0C10DAD
:103C400001F56071C0F3160042EA0151C208400755
:103C500011437047002001467047000030B500292D
:103C600004DB4FF00044404264EB0101002B04DB15
:103C70004FF00044524264EB03038B4208BF824280
:103C800030BD000030B5002904DB4FF00044404255
:103C900064EB0101002B04DB4FF00044524264EB63
:103CA0000303994208BF904230BD000030B50B4677
:103CB000014600202022012409E021FA02F59D425C
:103CC00005D303FA02F5491B04FA02F52844151E30
:103CD000A2F10102F1DC30BD2DE9F05F05460020C4
:103CE00092469B4688460646814640241BE028466D
:103CF00041464746224600F02FF853465A46C01A1E
:103D0000914110D311461846224600F016F82D1A9C
:103D100067EB01084F4622460120002100F00DF814
:103D200017EB00094E41201EA4F10104DFDC4846D8
:103D300031462A464346BDE8F09F202A04DB203A5C
:103D400000FA02F1002070479140C2F1200320FAEE
:103D500003F3194390407047202A04DB203A21FAEC
:103D600002F00021704721FA02F3D040C2F1200294
:103D70009140084319467047202A06DBCB17203AAA
:103D800041FA02F043EAE07306E041FA02F3D04060
:103D9000C2F1200291400843194670472DE9F047CF
:103DA00091460F4680460446002614F8015B2DB16B
:103DB00000F0ECF80068405DC007F6D12B2D02D072
:103DC0002D2D18D0641E4A463946204600F0E2F8F0
:103DD00027B13968A14201D1C7F8008071054FF0C1
:103DE00002040BD54042002803DD00F041F90460D5
:103DF000A007BDE8F08746F48066E4E70028F8DA1B
:103E000000F036F904606FF00040F2E70029A8BF27
:103E10007047401C490008BF20F00100704710B4F3
:103E2000B0FA80FC00FA0CF050EA010404BF10BCA8
:103E3000704749B1CCF1200421FA04F411FA0CF1D5
:103E400018BF012121430843A3EB0C01CB1D010640
:103E5000000A002BBEBF002010BC704700EBC3500F
:103E600010440029A4BF10BC7047401C490008BF83
:103E700020F0010010BC704710B5002B08DA401C80
:103E800041F1000192185B411A4301D120F0010079
:103E900010BD2DE9F04D92469B4611B1B1FA81F269
:103EA00002E0B0FA80F220329046FFF746FF044667
:103EB0000F4640EA0A0041EA0B0153465A460843BE
:103EC00003D120463946BDE8F08D114653EA010082
:103ED00015D0C8F140025046FFF73EFF05460E469A
:103EE000504659464246FFF728FF084301D00120BB
:103EF00000E00020054346EAE0762C4337430A9869
:103F00004FEA4453A0EB08004FEAD4240A304FF0A4
:103F1000000244EA47544FEAD72502D50020014663
:103F2000D1E7010510196941DDE90845001969412A
:103F3000BDE8F04DA0E7C1F30A52C1F3130140F20E
:103F4000FF3341F480119A4202DA002001467047A3
:103F500040F233439A42A2F2334202DC5242FFF76C
:103F6000FBBEFFF7EABE0000064C074D06E0E06826
:103F700040F0010394E8070098471034AC42F6D3B0
:103F8000FCF7DAF8C0490008E0490008004870472B
:103F9000BC4900082DE9F05F8246007800271546ED
:103FA0008B460AF10104B946302801D09DB113E0D7
:103FB00014F8010B0127782803D0582801D045B107
:103FC0000AE00DB1102D07D10027102514F8010BC0
:103FD00002E0082500E00A250026B0460EE005FBB9
:103FE000080005FB06F1012701EB10461FFA80F8D7
:103FF000B6F5803F00D3B94614F8010B294600F00E
:1040000018F80028EBDABBF1000F05D00FB1641EE1
:1040100000E05446CBF80040B9F1000F06D000F0A4
:1040200027F802210160C81EBDE8F09F48EA06405B
:10403000FAE73A2800D2303820F02002412A01D392
:10404000A2F13700884201D34FF0FF3070470000E3
:104050000FB4054B10B503A9044A029800F0CAF842
:1040600010BC5DF814FB000073060008600000201F
:10407000004870476400002002E008C8121F08C111
:10408000002AFAD170477047002001E001C1121FD9
:10409000002AFBD1704700002DE9FF5FDDE9022017
:1040A000010DDDF838B0024310D10F9801244CA265
:1040B000012808D0002100980F9BC0E90021C0E929
:1040C0000243BDE8FF9F6FEA0B01F4E7A1F2FF3165
:1040D00044F6105041430D140F9801280ED0A5EB63
:1040E0000B00401C4FF000043E4EDFF8FC90B0F196
:1040F000000AA04605DACAF1000717E0CBF100007C
:10410000F0E7074612E0F80707D02246334640465C
:104110004946FFF73FFC8046894622463346104613
:104120001946FFF737FC04460E467F10002FEAD1F0
:10413000DDE90201BAF1000F42464B4602DAFFF711
:1041400029FC01E0FFF798FC04460E460022274BAD
:10415000FFF798FD03D84FF0FF30014607E000223B
:10416000234B20463146FFF76EFBFFF7E4FE102499
:1041700009E0002C0ADB0A220023FFF7ADFD019BBA
:1041800030321A55641E50EA0102F2D1641C019AC1
:10419000C4F1110314440F9A012A09D001220843E3
:1041A00001D15B450FDD4FF0000205F101050DE087
:1041B000084303D1A3EB0B056D1E09E000204FF06F
:1041C000110B0F9088E701DA00226D1E002A83D0C0
:1041D00000980F99C0E90231C0E9004571E700007D
:1041E00030000000000024400000F03F0000F043D9
:1041F0000000E03F2DE9FF4F95B09B4689460646FB
:10420000002512E2252878D10024761CF94A274699
:10421000012105943378203B01FA03F0104202D0CB
:104220000443761CF6E730782A2811D06FF02F036C
:104230003078A0F13002092A16D8059A44F0020419
:1042400002EB820203EB42021044761C0590EFE77A
:1042500059F8042B0592002A03DA504244F4005422
:10426000059044F00204761C30782E2816D116F8FA
:10427000010F44F004042A280DD06FF02F0230788B
:10428000A0F13003092B09D807EB870302EB4303A6
:10429000C718761CF3E759F8047B761C30786C2835
:1042A0000FD006DC4C2817D068280DD06A2814D10E
:1042B00004E0742810D07A280FD10DE044F40014E3
:1042C0000AE044F4801401E044F44014727882421D
:1042D00002D1761C04F58014761C307866280BD049
:1042E00013DC582877D009DC002875D04528F6D093
:1042F0004628F4D047281AD19FE118E0632835D02A
:10430000642879D0652812D197E1702873D008DC31
:104310006728F1D069286FD06E280DD06F2806D19C
:10432000B5E073282CD0752875D0782874D05A46FB
:10433000179990476D1C76E1C4F30250022809D00A
:1043400003280DD0D9F8001004280DD00D6009F114
:10435000040968E1D9F80010EA17C1E90052F6E74C
:10436000D9F800100D80F2E70D70F0E719F8041B82
:104370008DF8001000208DF80100EA46012003E0CE
:1043800059F804AB4FF0FF3061074FF0000102D441
:104390000DE008F101018846B9420FDA8045F8DBEB
:1043A0001AF808100029F4D108E008F10101884644
:1043B0008142FADB1AF808100029F6D105985B460D
:1043C000A0EB080721463846179A00F09EFA2844C9
:1043D00000EB080507E04DE02BE10DE01AF8010BBA
:1043E0005A4617999047B8F10108F7D25B46214623
:1043F0003846179A14E142E00A220092C4F30252AE
:104400004FF0000A022A08D059F804CB032A4FEAD9
:10441000EC710AD00DE029E02AE009F1070121F052
:104420000702F2E802C1914609E00FFA8CFC4FEA5C
:10443000EC71042A03D14FFA8CFC4FEAEC7100298D
:1044400007DA0A460021DCF1000C61EB02012D22A3
:1044500002E0220504D52B228DF80420012203E07E
:10446000E20701D02022F7E7904653E00A2102E05C
:1044700010220DE010214FF0000A00910BE01022F5
:104480004FF0000A44F004040827009203E00822D9
:104490004FF0000A0092C4F30252022A05D059F8E4
:1044A00004CB0021032A08D009E009F1070121F01B
:1044B0000702F2E802C1914605E01FFA8CFC042ACB
:1044C00001D10CF0FF0C4FF00008220722D5702814
:1044D00027D0009B83F0100353EA0A0309D15CEA5A
:1044E000010206D030228DF804208DF8050002224A
:1044F0009046009B83F0080353EA0A030AD15CEA62
:10450000010201D1620705D530228DF804204FF059
:1045100001087F1E582809D037A003900EA80290EA
:1045200013E040228DF804200122E1E737A0F4E7F0
:1045300053466046009AFFF7CFFB84460398825C9F
:104540000298A0F10100029002705CEA0100EFD134
:10455000029806A9A1EB000000F1200A600702D52D
:1045600024F4803400E00127574502DDA7EB0A0060
:1045700000E0002000EB0A01009005984144A0EB08
:1045800001000590E00306D45B462146179A059882
:1045900000F0BBF90544002706E001A85A46C05DBB
:1045A000179990476D1C7F1C4745F6DBE0030CD53F
:1045B0005B462146179A059800F0A7F9054404E0E8
:1045C00030205A46179990476D1C0099481E00905C
:1045D0000029F5DC08E0029802995A460078491C47
:1045E0000291179990476D1CBAF10001AAF1010AD6
:1045F000F1DC6BE1092801003031323334353637D4
:10460000383961626364656600000000303132331E
:1046100034353637383941424344454600000000BE
:1046200000F060F9054406F10106307800287FF4B7
:10463000E9AD19B02846BDE8F08F620700D406271F
:1046400009F1070222F0070CFCE80223E14603F01F
:1046500000485FEA080C02D00FF27C2C0DE05FEA04
:10466000045C02D50FF2742C07E05FEAC47C02D030
:104670000FF26C2C01E0AFF2700C4FF0FF3823F01A
:104680000043CDF850C065280CD006DC452809D081
:1046900046281DD047283ED13EE0662818D067281E
:1046A00039D139E00021112F01DB112000E0781C05
:1046B000CDE9000106A90EA8FFF7EEFCDDE90F0128
:1046C0000E9A03910021009207F1010A04914EE035
:1046D0004FF000400097CDE9011006A90EA8FFF7A2
:1046E000DBFCDDE90F0203920E9B11990022DDF83D
:1046F0000CA00093049219B907F1010100EB010A23
:10470000B7EB0A0004D4C0F1FF3007F1010A0490AE
:10471000AAEB0700019046E0012F00DA01270021F3
:10472000112F01DD112000E03846CDE9000106A976
:104730000EA8FFF7B1FCDDE90F010E9A03910021ED
:1047400004910092BA4621070CD40399514500DA2E
:104750008A46BAF1010F05DD009AAAF10101515C08
:10476000302908D0B84202DA10F1040F06DA01212C
:10477000CDE9011017E0AAF10101E9E7002805DC05
:10478000049901440491AAEB000102E0411C514547
:1047900000DD8A460499A0EB010000F101000190C0
:1047A0004FF000400290200704D40198504501DBEF
:1047B000CDF8048000208DF84F0002980DF14F07CE
:1047C000B0F1004F25D02B200E9002984FF0020838
:1047D00000280CDA404202902D200E9007E00A21BA
:1047E0000298FFF763FA3031029007F8011DB8F123
:1047F0000001A8F10108F2DC02980028EFD1791E2F
:104800000E980870307800F0200040F0450007F85E
:10481000020D12A8A0EB070000F107081498007819
:1048200000B1012000EB0A01019801EBE07105984D
:104830004144A0EB0100A0F101000590E00306D483
:104840005B462146179A059800F05FF805441498D6
:10485000007820B15A461799904705F10105E00309
:1048600023D55B462146179A059800F04EF805447B
:104870001BE00498002807DBDDE90301884203DD23
:104880000098405C179901E0179930205A469047EC
:1048900004986D1C401C04900198401E019004D1A6
:1048A0002E205A46179990476D1CBAF10001AAF1C3
:1048B000010ADEDC05E017F8010B5A46179990470C
:1048C0006D1CB8F10001A8F10108F4DC5B4621463B
:1048D000179A0598A4E600002D0000002B000000A8
:1048E000200000002DE9F041044600251E46174631
:1048F000880405D406E039462020B04705F10105BB
:10490000641EF8D52846BDE8F0812DE9F041044643
:1049100000251E469046C80301D5302700E0202719
:10492000880405D506E041463846B04705F1010543
:10493000641EF8D52846BDE8F08100404040404064
:104940004040404041414141414040404040404062
:10495000404040404040404040404005020202028A
:104960000202020202020202020202202020202091
:104970002020202020020202020202029090909049
:104980009090101010101010101010101010101027
:10499000101010101010020202020202888888888B
:1049A0008888080808080808080808080808080887
:1049B0000808080808080202020240003B490008F3
:1049C000E04900080000002068000000784000086E
:1049D000484A000868000020B80500008840000828
:1049E00000A24A04000000000000000001020304CD
:1049F0000607080900000000000000000000000198
:104A000000000000000000000000000000000000A6
:104A10000000000000000000000000000000000096
:104A20000000000000000000000000000001020380
:104A30000401020304060708090204060800000036
:084A400000000000000000006E
:0400000508000131BD
:00000001FF
